:1000000052C100006BC1000069C1000067C100005F
:1000100065C1000063C1000061C100005FC1000054
:100020005DC100005BC1000059C1000057C1000064
:1000300055C1000053C1000051C100004FC1000074
:100040004DC100004BC1000049C1000047C1000084
:1000500045C1000043C1000041C100003FC1000094
:100060003DC100003BC10000860101000601010006
:1000700006010000000000004A5441474943452062
:100080006D6B49490065736172454D564E4003A042
:1000900001CF0067003300220010008A0020676F44
:1000A00072504D564E0000891112239B322446ADEA
:1000B000573665BF74488CC19D5AAFD3BE6CCAE534
:1000C000DB7EE9F7F88110080193331A22A5562C3C
:1000D00047B7753E64C99C408DDBBF52AEEDDA6414
:1000E000CBFFF976E802218B30100299132667AF17
:1000F000763444BD554AADC3BC588ED19F6EEBE7F4
:10010000FA7CC8F5D983310A2091121803A7772EFB
:1001100066B5543C45CBBD42ACD99E508FEFFB66D3
:10012000EAFDD874C904428D5316619F702004A95A
:10013000153227BB364CCEC5DF5EEDD7FC6888E1B3
:10014000997AABF3BA85520C4397711E60A11428BB
:1001500005B3373A26CDDE44CFDFFD56ECE9986093
:1001600089FBBB72AA06638F7214409D512225AB96
:10017000343006B9174EEFC7FE5CCCD5DD6AA9E373
:10018000B8788AF19B87730E6295501C41A3352A7B
:1001900024B1163807CFFF46EEDDDC54CDEBB96253
:1001A000A8F99A708B088481951AA793B62CC2A5DA
:1001B000D33EE1B7F04008C919522BDB3A644EED4B
:1001C0005F766DFF7C899400859BB712A6ADD22423
:1001D000C3BFF136E0C1184809D33B5A2AE55E6C2B
:1001E0004FF77D7E6C0AA583B4188691972EE3A7FE
:1001F000F23CC0B5D14229CB38500AD91B666FEF0B
:100200007E744CFD5D8BB502A499961087AFF326E2
:10021000E2BDD034C1C3394A28D11A580BE77F6EEA
:100220006EF55C7C4D0CC685D71EE597F42880A141
:10023000913AA3B3B2444ACD5B5669DF78600CE9CA
:100240001D722FFB3E8DD604C79FF516E4A99020A2
:1002500081BBB332A2C55A4C4BD7795E68E11C68AA
:100260000DF33F7A2E0EE787F61CC495D52AA1A37D
:10027000B03882B193466BCF7A5448DD59622DEB8A
:100280003C700EF91F8FF706E69DD414C5ABB12262
:10029000A0B9923083C77B4E6AD5585C49E33D6A6A
:1002A0002CF11E780F0011241FBECFEFD8E0DEBF67
:1002B000CDBF11E0A0E0B1E0E4E3FFE002C00590B3
:1002C0000D92A230B107D9F723E0A2E0B1E001C05E
:1002D0001D92AA3CB207E1F765D22AC691CE8627C5
:1002E000E82FF0E0EE0FFF1FEB55FF4F2591349103
:1002F000872F8227932F0895569A0BB038E720E373
:100300002A95F1F75E9801F025E12A95F1F780FB37
:1003100006F887953041000087F90BB8A8F727E168
:100320002A95F1F730FB06F80BB828E12A95F1F78A
:100330005E9A5698089556985E981092850010928D
:100340008400A1E8B0E084E08C93E6E3F0E080E88C
:100350002081247079F44E99FBCF2EE02A95F1F795
:1003600026E12150F1F74E9908948795C8F720E3CC
:100370002A95F1F75E9A1C92089585E5BDDF8BE81A
:10038000BBDFD9CFCF93C82F85E5B6DF84E6B4DFD6
:100390008C2FB2DFCF91CFCF85E5AEDF84E2ACDF2B
:1003A000CACFCF9385E5A8DF89E2A6DFC4DFC82FD7
:1003B000C2DF982F8C2FCF9108951F93CF93DF9397
:1003C000162FD72FC82F85E597DF8AE695DF812F77
:1003D00093DF8D2F91DF8C2F8FDFDF91CF911F91D6
:1003E000AACFCF93DF93D82FC92F85E585DF89E684
:1003F00083DF8D2F81DF8C2F7FDFDF91CF919BCF2C
:100400000F931F93CF93DF938B01D82FC42F85E5D4
:1004100073DF88E471DF802F6FDF812F6DDF8D2F19
:100420006BDF89DF8C2F68DFDF91CF911F910F91F8
:1004300082CF1F93CF93DF93182FD92FC62F85E537
:100440005BDF84E459DF812F57DF8D2F55DF73DFAA
:100450008C2F52DFDF91CF911F916DCF1F93CF93E0
:10046000DF93162FD72FC82F85E546DF88E044DFBE
:10047000812F42DF8D2F40DF8C2F3EDFDF91CF9128
:100480001F9159CFCF93DF93D82FC92F85E534DF44
:1004900084E032DF8D2F30DF8C2F2EDFDF91CF9184
:1004A0004ACFCF93C82F85E527DF80EA25DF8C2F41
:1004B000CF9122CFCF93DF93D82FC62F85E51CDFB6
:1004C00080EC8D0F19DF8C2FDF91CF9115CFCF935B
:1004D000DF9369E588E0EEDF60E088E0EBDFC0E015
:1004E000D6E04BDF8E7039F4C23029F0B29BF9CFE1
:1004F000D6BBCF5FF6CF81E0C23008F080E0DF915D
:10050000CF910895E0ECF0E0808187FFFDCF8091EE
:10051000C6000895E0ECF0E0908195FFFDCF90815A
:10052000906490838093C6000895EF92FF921F938A
:10053000CF93DF93D82FC62F1FEF180F32DF7C0128
:1005400082E090E19FDF8370D9F7C7014ADF6EE058
:1005500082E0B0DF812FA5DFEC2FF0E0E85FFE4FF7
:10056000168185E5C9DE84E6C7DE812FC5DEDC0F96
:10057000CF5FCD1739F0EC2FF0E0E85FFE4F8681BA
:10058000BBDEF6CF66E082E095DF8C2FDF91CF9166
:100590001F91FF90EF90089582E090E173DF8370E8
:1005A000D9F70895482F60E070E180E090E028CF0F
:1005B00062E070E180E090E051DF8370C9F7089558
:1005C0000F931F93CF938C0185E596DE80EE94DE2A
:1005D000C8E0F801849190DE0F5F1F4FC150C9F74A
:1005E000CF911F910F910895E8E0F1E021E030E014
:1005F000338322838683089564E083E05BDF809108
:1006000007018E7F8093070180E8EECFB6DE8F7EF4
:10061000883029F0823881F42D988BEA0AC08091C5
:100620000001823039F4C4DF52DF2D988823A9F30A
:1006300080E8DACFB1DFF8CFE8E0F1E022E030E0A7
:100640003383228395EA968387830895DF92EF921E
:10065000FF920F931F93CF93DF938FDEC82FCF7E30
:10066000D0910001D23009F472C0C132A9F080F4F7
:1006700019E0C83039F1E8E0F1E085EA8683C78304
:10068000DF91CF911F910F91FF90EF90DF90089530
:10069000C23811F0C23A79F719E019DF811109C0A7
:1006A0008BEADF91CF911F910F91FF90EF90DF9038
:1006B0009BCF63DE80FDDFCF8DE990E081DF07DF38
:1006C000882371F3D13009F049C064E080E090E103
:1006D000B0DE2D9A80E888DFE12EF12CC8E0D1E071
:1006E000C70109969B838A8302E50F8385E4D82E90
:1006F000D88686E5898761E07FE080E090E0AEDE25
:100700008A8783E58B87DC860D87809100018230A4
:10071000D1F460E171E180E090E04FDE812FC1DE35
:100720003BDE8093160119E088E0E80EF11CC12F32
:10073000D0E0EC16FD060CF4A3CFFDDDC85FDE4F64
:100740008E831F5FF4CF83E091E14BDEE7CFC132B0
:10075000A1F070F41FE0C83009F08DCF29DF40E030
:1007600062E070E180E090E04BDE81E01BDFB1CF22
:10077000C23819F0C23A09F07ECF1FE08ECF569AE8
:100780005E9829E989E191E0215080409040E1F7AD
:1007900000005E9A8FEF9FE10197F1F700C0000023
:1007A00056980895CF93DF93CDB7DEB762970FB613
:1007B000F894DEBF0FBECDBF80E48BB9259A80EFE1
:1007C0009CE390938900809388008AE698E1909357
:1007D0008B0080938A0082E08093C00087E690E0DF
:1007E0009093C5008093C40088E18093C10008E025
:1007F00011E068019E012F5E3F4F3A8B298B82DE0C
:100800008B3111F086B3FBCF6FEF7FEF8BE167DDAC
:100810007C0128E0222E21E0322E74DED1018D935E
:100820001D01B7015CDD7C01BEE02B16B1E03B068B
:10083000A1F7F80182809380FDEB8F16F2E09F060E
:10084000F0F660DE8E30D9F6B70149DD5C0198E044
:10085000E92E91E0F92EC701801B910B88159905AF
:1008600058F450DED70116968C93B50138DD5C0143
:10087000BFEFEB1AFB0AEFCF45DEF82E43DE982FD1
:100880008F2DA816B90609F0BACFF80186818830F5
:1008900009F450C108F5823009F42CC140F48823D2
:1008A00009F437C1813009F48AC080EADDC08430A0
:1008B00009F4E3C108F4CEC08530B9F75EDD8830B5
:1008C00009F43FC122E030E0F8013383228385EA56
:1008D000868381E087838EC08F3009F418C108F0C9
:1008E00063C08B3009F469C08C30F9F6A2E0B2E045
:1008F0008C9190E09093050180930401E4E0F2E094
:100900008081809303013BDF3ADF66E082E0D2DD45
:1009100085E5F2DC85EEF0DC9E012F5F3F4F59014B
:10092000790109DDD7018D937D01E989FA89EA17FB
:10093000FB07B9F7809107018160809307018B85E0
:10094000823309F0FAC082E08093000180E84CDE37
:10095000E8E1F0E0D8011396FC93EE93129783E55B
:1009600017968C93179789E418968C93189782E4BE
:1009700019968C93E2E1F1E0D5018D915D018193AF
:10098000AE15BF05C9F78EE4F801828F86E5838F27
:100990008DE4848F80910001823009F0D0C082E321
:1009A000D8015D968C9326C0853109F4C1C084338B
:1009B00009F466C2843109F078CF48DE1BC082E0BA
:1009C0008093020184E0809306018DE190E093839F
:1009D0008283E8E6F0E0AEE0B1E084918D93319659
:1009E0002BE231E02A173B07C1F7809107018260B3
:1009F00080930701B29B02C08BEAF6DD8BE18ADDB2
:100A00006FEF7FEF6CDC7C015601D5018D915D01AC
:100A100081DDB70164DC7C012A143B04B1F78EE070
:100A200079DDB7015CDC5C017601C7018C199D0999
:100A3000BFEFEB1AFB0AF80122813381821793077B
:100A400008F05EC2D70115968C9164DDB50147DCD4
:100A50005C01EBCFD80187818330C1F138F481305C
:100A6000B9F0823001F181EABFDDC4CF8530C9F130
:100A70008630C9F7E3E0F0E01396FC93EE9312970B
:100A800088E817968C93179783E118968C9306C085
:100A900023E030E0338322838783808781E8D80195
:100AA00016968C93A7CFE5E0F0E01396FC93EE93B7
:100AB000129717961C92179786E018968C931897A2
:100AC00019961C9219971A968C93E8CFE2E0F0E001
:100AD0001396FC93EE9312978091020117968C93D4
:100AE000DDCF80910601E2E0F0E01396FC93EE93F7
:100AF0001297F4CF8781833039F0853009F0B3CF76
:100B000080858093060103C080858093020180E880
:100B1000ABCF84E0809306018091070180FF02C083
:100B200075DD6ADD809107018D7F80930701EFCF2E
:100B30006DDD60CF6BDD60DD5DCF81E005CF81E3F2
:100B40002FCFD8011896ED90FC9019971D962C91F7
:100B50001D971C963C911C9780910001813039F5BE
:100B60001C968D919C91B2E0EB16F104E0F039DC1B
:100B70008FEF8E0D96DC10DCF8018783B0E18B2EB1
:100B8000B1E09B2E82E0A82EB12CD5DBD4018D9351
:100B90004D01BFEFAB1ABB0AEA14FB04B0F7FFEF3D
:100BA000EF1AFF0A44C06EDCF8018783F8CFF80122
:100BB000668570E090E080E0CB0177276627630FC1
:100BC000711D811D911D30E0322F2227620F731F8E
:100BD000811D911D2781205C223080F5EEDBC7014D
:100BE0009695879581505DDC85E586DB85E284DB23
:100BF000A2DBB82EA0DB982FD8011796BC921797CE
:100C000018969C9331E1832E31E0932E43E0A42E7D
:100C1000B12CEA14FB0440F08EDBF40181934F0108
:100C2000FFEFAF1ABF0AF5CF2FEFE21AF20AD80191
:100C30001396FC92EE92129782E832CFB2E0EB1656
:100C4000F104C8F0BADB8FEF8E0D2BDCA5DBF801C9
:100C5000878380E1882E81E0982E92E0A92EB12C26
:100C60006ADBD4018D934D01BFEFAB1ABB0AEA14C6
:100C7000FB04B0F794CFF2DB97CF7FDB883009F02D
:100C800021CEF8018781E084F18460900001B58471
:100C90008484F1E06F1266C090E4980F923008F0FF
:100CA00039C0A4E0B1E05C90882D9B2D9ADB819443
:100CB0008FEF850D88228E141F0411F008F08E2C02
:100CC000AAE07A2E882071F06AE0882D2EDC782E3A
:100CD000E818F10866DB5C01662D80E090E1A9DB95
:100CE000C5017FDBA52CB12CE114F10409F40FCF71
:100CF000672DEA14FB0480F1852D17DC782EEA18A5
:100D0000FB084FDB4C01662D80E090E192DBC401D3
:100D100068DBEACF50900301843B38F4823B50F407
:100D2000823231F4B3E06B2EBFCF845C8230D0F3DB
:100D300082EA9ACEF801F08886E090E152DB8F2DAE
:100D400021DB80E01FDB882D1DDB8B2D1BDB67E0AB
:100D500080E090E16EDBDBCE8E2DE7DB782EF12C90
:100D6000E12CCFCFD8011E969C91482C512C712C90
:100D70008B2C912C982C8824B12CA12C842895287C
:100D8000A92AB728823C08F037C0803C08F039C057
:100D9000823221F068F2825B823050F6E3E17E2EEF
:100DA00007DC81E0FFDB872DFDDBF8015088452D56
:100DB000F1E0EF16F10409F49FC024E0E216F1041B
:100DC00018F032E0731601F1872DECDBC501B40198
:100DD000F4DA8FEF8E0D65DB852DD4DA69E1A62E6E
:100DE00061E0B62EEA94EE2009F491CED5018D9102
:100DF0005D0182DAA0DAF6CF843C81F2853C09F00D
:100E000097CF72E0772ECCCFC70196958795682E45
:100E100077247A94780EC501B401CFDA6EE082E0CF
:100E200049DB872D3EDBF801B18885E565DA85E68B
:100E300063DA852D61DA8B2D5FDA56016A94F2E070
:100E4000AF0EB11C662041F0D50150968C9154DA5A
:100E5000F501818951DAF2CFE72DF0E03696EE0FF9
:100E6000FF1FE0FE09C0E85FFE4FF68085E544DA2B
:100E700084E642DA8F2D40DA66E082E01BDB47CE63
:100E80002781263060F4243080F421110ECD85E8CE
:100E900090E096DB1CDB811190CD8BEAE5CD26300E
:100EA00009F435CE273009F000CDF8018284912C69
:100EB000B12CA12C5401992488248085882A81850D
:100EC00090E0982F8827B0E0A0E0882A992AAA2AE3
:100ED000BB2A80910001813049F4273009F417CEF4
:100EE0005BDB6FEFC401A5DA62E032CF61DB81E04A
:100EF00059DB88E057DB4FEFC501B40181DA07CE3B
:100F00008A2D08DB8B2D06DBE0ECF0E0808186FF8C
:100F1000FDCFE0910601E150FF0BEE0FFF1FE357FD
:100F2000FF4F859194919093C5008093C40067CC46
:040F3000F894FFCF63
:020F34000100BA
:00000001FF
