:1000000052C1000060C100005EC100005CC1000080
:100010005AC1000058C1000056C1000054C1000080
:1000200052C1000050C100004EC100004CC1000090
:100030004AC1000048C1000046C1000044C10000A0
:1000400042C1000040C100003EC100003CC10000B0
:100050003AC1000038C1000036C1000034C10000C0
:1000600032C1000030C1000086010100060101001C
:1000700006010000000000004A5441474943452062
:100080006D6B49490065736172454D564E4003A042
:1000900001CF0067003300220010008A0020676F44
:1000A00072504D564E0000891112239B322446ADEA
:1000B000573665BF74488CC19D5AAFD3BE6CCAE534
:1000C000DB7EE9F7F88110080193331A22A5562C3C
:1000D00047B7753E64C99C408DDBBF52AEEDDA6414
:1000E000CBFFF976E802218B30100299132667AF17
:1000F000763444BD554AADC3BC588ED19F6EEBE7F4
:10010000FA7CC8F5D983310A2091121803A7772EFB
:1001100066B5543C45CBBD42ACD99E508FEFFB66D3
:10012000EAFDD874C904428D5316619F702004A95A
:10013000153227BB364CCEC5DF5EEDD7FC6888E1B3
:10014000997AABF3BA85520C4397711E60A11428BB
:1001500005B3373A26CDDE44CFDFFD56ECE9986093
:1001600089FBBB72AA06638F7214409D512225AB96
:10017000343006B9174EEFC7FE5CCCD5DD6AA9E373
:10018000B8788AF19B87730E6295501C41A3352A7B
:1001900024B1163807CFFF46EEDDDC54CDEBB96253
:1001A000A8F99A708B088481951AA793B62CC2A5DA
:1001B000D33EE1B7F04008C919522BDB3A644EED4B
:1001C0005F766DFF7C899400859BB712A6ADD22423
:1001D000C3BFF136E0C1184809D33B5A2AE55E6C2B
:1001E0004FF77D7E6C0AA583B4188691972EE3A7FE
:1001F000F23CC0B5D14229CB38500AD91B666FEF0B
:100200007E744CFD5D8BB502A499961087AFF326E2
:10021000E2BDD034C1C3394A28D11A580BE77F6EEA
:100220006EF55C7C4D0CC685D71EE597F42880A141
:10023000913AA3B3B2444ACD5B5669DF78600CE9CA
:100240001D722FFB3E8DD604C79FF516E4A99020A2
:1002500081BBB332A2C55A4C4BD7795E68E11C68AA
:100260000DF33F7A2E0EE787F61CC495D52AA1A37D
:10027000B03882B193466BCF7A5448DD59622DEB8A
:100280003C700EF91F8FF706E69DD414C5ABB12262
:10029000A0B9923083C77B4E6AD5585C49E33D6A6A
:1002A0002CF11E780F0011241FBECFEFD8E0DEBF67
:1002B000CDBF23E0A0E0B1E001C01D92AA30B2079B
:1002C000E1F760D1D4C39CCE8627E82FF0E0EE0F93
:1002D000FF1FEB55FF4F25913491872F90E0822728
:1002E0009327089584E085BD8FE787BD8BE092E07A
:1002F000A99BFECF95BB8150D9F782EC84BDA99B09
:10030000FECF82E085BB5698089515BC92E297BD5A
:100310009CE096BD92E095BB5E984E99FECF91E031
:1003200095BDA99BFECF92E095BB96E497BD28E0D2
:1003300032E0A99BFECF35BB99B1990F9078869595
:10034000892B2150B1F7A99BFECF92E095BB90EB92
:1003500097BD4E9BFECF5E9A0895A99BFECF92E07B
:1003600095BB15BC26E427BD25E426BD22E824BDA7
:1003700021E025BD569A95BB91E020E042E852EC81
:1003800032E0682F6923D1F054BD2095A99BFECFA0
:1003900035BB990FB1F792EC211101C092E894BDE1
:1003A000A99BFECF92E095BB92EC94BDA99BFECF9A
:1003B00092E095BB9DE897BD5698089544BDE6CF61
:1003C00085E5CBDF84E0C9DF82E0C7DF80E1C5DF00
:1003D0009CCF85E5C2DF8BE8C0DF97CF85E5BDDF29
:1003E00088ECBBDF89E5B9DF85E5B7DF88ECB5DFF1
:1003F00080E0B3CFCF93C82F85E5AFDF84E6ADDFD4
:100400008C2FABDFCF9181CFCF93DF93D82FC92F24
:1004100085E5A3DF89E6A1DF8D2F9FDF8C2F9DDF90
:10042000DF91CF9172CFCF9385E597DF89E295DF9A
:100430006CDFC82F6ADF982F8C2FCF9108951F9300
:10044000CF93DF93182FD92FC62F85E586DF84E45D
:1004500084DF812F82DF8D2F80DF57DF8C2F7DDFC0
:10046000DF91CF911F9151CF8091C00087FFFCCFCA
:100470008091C60008959091C00095FFFCCF8093B5
:10048000C6000895EF92FF920F931F93CF93DF93CF
:10049000082FEB01C8DF7C0193DF8370E9F7C70108
:1004A000B3DF85E55ADF80EA58DF8FEF800F55DF35
:1004B000E88181E08E0F8883F0E0E65FFE4F808167
:1004C00099DFF12C0150110BF016110664F4E8814C
:1004D00081E08E0F8883F0E0E65FFE4F80813DDF94
:1004E00014DFF394F1CFDF91CF911F910F91FF9023
:1004F000EF9008950F931F93CF93DF938C0185E5C1
:100500002CDF80EE2ADFD0E0C0E0F801EC0FFD1F09
:10051000849123DF2196C830D105B9F7DF91CF91BF
:100520001F910F91089541E050E060E070E040932A
:1005300006015093070160930801709309018093AD
:100540000A01089546DF8F7E883049F0823871F4C1
:100550008DE990E0CFDF42DF3CDF8830E9F764E0EF
:1005600080E090E16CDF2D9A80E8DDCF22E030E082
:10057000309307012093060195EA90930A01809336
:100580000B01089500D00F92CDB7DEB78FE38093B3
:100590007E008FEF8BB98FED85B980E880BF8DEC41
:1005A0008093640082E08093C00087E68093C4005B
:1005B00088E18093C10086E08093C20082EC84BD14
:1005C00085E486BD86E487BD81E085BD4AE0C42E12
:1005D00041E0D42E52E0E52EF12C63E0262E312CA2
:1005E00043DF8B31E9F7EDE6F2E0059114910095D8
:1005F00034E0632E31E0732E530136DFF501819331
:100600005F01B80161DE8C01CA14DB04B1F7809090
:10061000060190900701A0900801B0900901F1E057
:100620008F16F2E09F06A104B104D0F61DDF8E30D4
:10063000B9F6B80149DE8C018AE091E09B838A8398
:10064000F401E65FFE4F4F015C01A814B90441F0CC
:100650000BDFF50181935F01B80136DE8C01F5CF28
:1006600003DFB82E01DF982F8B2D0817190709F02B
:10067000B7CF80910A01883009F401C108F58230B2
:1006800009F4EDC038F4882309F4FBC0813099F1F6
:1006900080EAAAC0843009F43CC108F49BC08530CC
:1006A000B9F797DE883009F406C1F0920701E092AD
:1006B000060185EA80930A0191E090930B0155C0F1
:1006C0008F3009F4DCC068F48B3099F08C3001F77E
:1006D0008091FE01809302018091000280930101CC
:1006E000CEC0853109F4D0C0843309F484C184318B
:1006F00079F628DF3AC092E09093000124E020933D
:10070000030115BC26E427BD25E426BD12E814BD6F
:1007100085BD569A95BBE6DD14BDA99BFECF82E050
:1007200085BB569ADFDDA99BFECF82E085BB86E4C0
:1007300087BD85E486BDF1E0F5BD85E50EDE82EC82
:100740000CDE86E00ADE8DE190E090930701809355
:100750000601E8E6F0E0AAE0B1E084918D933196DD
:1007600087E291E08A179B07C1F78BE184DE6FEF88
:100770007FEFAADD8C01F30181913F017CDEB8019E
:10078000A3DD8C01C614D704B1F78EE074DEB80186
:100790009BDD8C01812C912C54018091060190915C
:1007A0000701A0910801B091090188169906AA06CF
:1007B000BB0608F040C1EA81FB818191FB83EA839B
:1007C0005ADEB80181DD8C01FFEF8F1A9F0AAF0A54
:1007D000BF0AE3CF80910B01833089F138F4813077
:1007E00091F08230C9F081EA9EDEBFCF853081F181
:1007F0008630C9F7309207012092060188E880937D
:100800000B0183E106C0309207012092060180931C
:100810000B0180930C010FC0E5E0F0E0F0930701BD
:10082000E093060110920B0186E080930C01109278
:100830000D0180930E0181E880930A0196CFF0921A
:100840000701E09206018091000180930B01F3CF34
:10085000F0920701E092060180910301F6CF8091AA
:100860000B01833041F0853009F0BDCF80910C0140
:100870008093030104C080910C018093000180E803
:10088000B3CF84E080930301A4DD8F7E883061F0D4
:10089000823879F0F0920701E0920601F5EAF093D0
:1008A0000A0180930B0161CF99DD93DD8F7E823841
:1008B000E1F72D98E4CF00910C0110910D0180918A
:1008C000100190911101A0DD85E547DD80EA45DD4D
:1008D0008FEF800F42DD85E540DD84E23EDD15DDF2
:1008E00080930B0122E0A22EB12C0A151B0548F0C3
:1008F0000CDDF501E65FFE4F8083EFEFAE1ABE0A16
:10090000F4CF0F5F1F4F109307010093060182E899
:1009100093CF5FDD883009F0C8CE80910B01B09095
:100920001001A090110190E4980F5090020144240E
:1009300043949230F8F050900101823B38F0843BB0
:1009400038F0845C93E0492E8230A0F082EA4CCFEC
:100950001091140186E090E157DD812F4BDD80E09E
:1009600049DD8B2D47DD8A2D45DD67E080E090E194
:1009700066DD85CF00910C0110910D01FAE0F9833D
:100980008B2D9A2D41DDB1948FEF850DB822B016D5
:10099000110611F008F0B02EBB2079F0BE016F5F98
:1009A0007F4F8B2D6FDD0B1911093DDD5C01642D2F
:1009B00080E090E144DDC50127DDA52CB12C0115B7
:1009C000110509F45CCFBE016F5F7F4F0A151B054F
:1009D00068F0852D57DD0A191B0925DD4C01642DB2
:1009E00080E090E12CDDC4010FDDE9CF802F4ADDEE
:1009F00010E000E0F2CF80910B01863060F484308B
:100A000070F4811145CE85E890E074DDE7DCE1DC2F
:100A100080FDFDCF6ECE883008F431CF39CE009105
:100A20000C0110910D01CCDC8370E9F76FEFC80168
:100A300006DD62E09BCF802F1EDD812F1CDD8091C3
:100A4000C00080648093C0008091C00086FFFCCF0E
:100A5000E0910301E150FF0BEE0FFF1FE357FF4F43
:100A6000859194919093C5008093C400B9CDF8947A
:020A7000FFCFB6
:00000001FF
