:1000000052C1000060C100005EC100005CC1000080
:100010005AC1000058C1000056C1000054C1000080
:1000200052C1000050C100004EC100004CC1000090
:100030004AC1000048C1000046C1000044C10000A0
:1000400042C1000040C100003EC100003CC10000B0
:100050003AC1000038C1000036C1000034C10000C0
:1000600032C1000030C1000086010100060101001C
:1000700006010000000000004A5441474943452062
:100080006D6B49490065736172454D564E4003A042
:1000900001CF0067003300220010008A0020676F44
:1000A00072504D564E0000891112239B322446ADEA
:1000B000573665BF74488CC19D5AAFD3BE6CCAE534
:1000C000DB7EE9F7F88110080193331A22A5562C3C
:1000D00047B7753E64C99C408DDBBF52AEEDDA6414
:1000E000CBFFF976E802218B30100299132667AF17
:1000F000763444BD554AADC3BC588ED19F6EEBE7F4
:10010000FA7CC8F5D983310A2091121803A7772EFB
:1001100066B5543C45CBBD42ACD99E508FEFFB66D3
:10012000EAFDD874C904428D5316619F702004A95A
:10013000153227BB364CCEC5DF5EEDD7FC6888E1B3
:10014000997AABF3BA85520C4397711E60A11428BB
:1001500005B3373A26CDDE44CFDFFD56ECE9986093
:1001600089FBBB72AA06638F7214409D512225AB96
:10017000343006B9174EEFC7FE5CCCD5DD6AA9E373
:10018000B8788AF19B87730E6295501C41A3352A7B
:1001900024B1163807CFFF46EEDDDC54CDEBB96253
:1001A000A8F99A708B088481951AA793B62CC2A5DA
:1001B000D33EE1B7F04008C919522BDB3A644EED4B
:1001C0005F766DFF7C899400859BB712A6ADD22423
:1001D000C3BFF136E0C1184809D33B5A2AE55E6C2B
:1001E0004FF77D7E6C0AA583B4188691972EE3A7FE
:1001F000F23CC0B5D14229CB38500AD91B666FEF0B
:100200007E744CFD5D8BB502A499961087AFF326E2
:10021000E2BDD034C1C3394A28D11A580BE77F6EEA
:100220006EF55C7C4D0CC685D71EE597F42880A141
:10023000913AA3B3B2444ACD5B5669DF78600CE9CA
:100240001D722FFB3E8DD604C79FF516E4A99020A2
:1002500081BBB332A2C55A4C4BD7795E68E11C68AA
:100260000DF33F7A2E0EE787F61CC495D52AA1A37D
:10027000B03882B193466BCF7A5448DD59622DEB8A
:100280003C700EF91F8FF706E69DD414C5ABB12262
:10029000A0B9923083C77B4E6AD5585C49E33D6A6A
:1002A0002CF11E780F0011241FBECFEFD8E0DEBF67
:1002B000CDBF23E0A0E0B1E001C01D92AA30B2079B
:1002C000E1F767D1D3C39CCE8627E82FF0E0EE0F8D
:1002D000FF1FEB55FF4F25913491872F90E0822728
:1002E0009327089584E085BD8FE787BD8BE092E07A
:1002F000A99BFECF95BB8150D9F782EC84BDA99B09
:10030000FECF82E085BB5698089515BC9FE197BD4E
:100310009CE096BD92E095BB5E984E99FECF91E031
:1003200095BDA99BFECF92E095BB9FE397BD28E0CA
:1003300032E0A99BFECF35BB99B1990F9078869595
:10034000892B2150B1F7A99BFECF92E095BB9FE985
:1003500097BD4E9BFECF5E9A90E00895A99BFECF7D
:1003600092E095BB15BC2FE327BD2EE326BD22E806
:1003700024BD21E025BD569A95BB91E020E042E8DE
:1003800052EC32E0682F6923D9F054BD2095A99B27
:10039000FECF35BB990FB1F792EC211101C092E865
:1003A00094BDA99BFECF92E095BB92EC94BDA99B16
:1003B000FECF92E095BB9FE797BD569890E00895D9
:1003C00044BDE5CF85E5CADF84E0C8DF82E0C6DF53
:1003D00080E1C4DF9ACF85E5C1DF8BE8BFDF95CF31
:1003E00085E5BCDF88ECBADF89E5B8DF85E5B6DFF7
:1003F00088ECB4DF80E0B2CFCF93C82F85E5AEDFC5
:1004000084E6ACDF8C2FAADFCF917FCFCF93DF9331
:10041000D82FC92F85E5A2DF89E6A0DF8D2F9EDFCB
:100420008C2F9CDFDF91CF9170CFCF93DF9385E549
:1004300095DF89E293DF69DFEC0167DF20E0382F89
:10044000C9018C2B9D2BDF91CF9108951F93CF93E2
:10045000DF93182FD92FC62F85E580DF84E47EDF58
:10046000812F7CDF8D2F7ADF50DF8C2F77DFDF91BC
:10047000CF911F914ACF8091C00087FFFCCF809120
:10048000C60008959091C00095FFFCCF8093C600F0
:100490000895EF92FF920F931F93CF93DF93082F4E
:1004A000EB01C3DF7C018EDF8370E9F7C701AEDFAC
:1004B00085E554DF80EA52DF8FEF800F4FDFE88160
:1004C00081E08E0F8883F0E0E65FFE4F808194DF4D
:1004D000F12C0150110BF016110664F4E88181E053
:1004E0008E0F8883F0E0E65FFE4F808137DF0DDFFF
:1004F000F394F1CFDF91CF911F910F91FF90EF9087
:1005000008950F931F93CF93DF938C0185E526DF2A
:1005100080EE24DFD0E0C0E0F801EC0FFD1F8491F5
:100520001DDF2196C830D105B9F7DF91CF911F911A
:100530000F91089541E050E060E070E040930601C3
:1005400050930701609308017093090180930A0199
:10055000089541DF883049F0823871F48DE990E0E8
:10056000D0DF3EDF38DF8830E9F764E080E090E1FB
:100570006DDF2D9A80E8DECF82E090E09093070156
:100580008093060185EA80930A0181E080930B0144
:10059000089500D00F92CDB7DEB78FE380937E0031
:1005A0009FEF9BB99FED95B990E890BF9DEC90931C
:1005B000640092E09093C00097E69093C40098E1A5
:1005C0009093C10096E09093C20092EC94BD9EE39C
:1005D00096BD87BD81E085BD42E0E42EF12C55EA51
:1005E000C52EDD24D39463E0262E312C44DF8B31DD
:1005F000E9F7EDE6F2E005911491009534E0632E01
:1006000031E0732E530137DFF50181935F01B801AB
:100610005BDE8C018AE091E08A159B05A1F7809052
:10062000060190900701A0900801B090090191E0A7
:10063000891692E09906A104B104C0F61CDF8E3041
:10064000A9F6B80141DE8C01EAE0F1E0FB83EA8320
:10065000C401865F9E4F4C015F01A814B90441F0AC
:100660000ADFF50181935F01B8012EDE8C01F5CF21
:1006700002DFB82E00DF982F8B2D0817190709F01D
:10068000B5CF80910A01883009F422C108F03EC03C
:10069000823009F40DC140F4882309F41BC1813074
:1006A00009F451C080EAC9C0843009F432C108F4A9
:1006B000BAC08530B9F78FDE883009F013C10091D8
:1006C0000C0110910D0180911001909111019EDE9D
:1006D00085E544DE80EA42DE8FEF800F3FDE85E570
:1006E0003DDE84E23BDE11DE80930B0122E0A22E90
:1006F000B12C0A151B0508F404C107DEF501E65FFD
:10070000FE4F8083FFEFAF1ABF0AF3CF8F3009F49B
:10071000DFC070F48B30A9F08C3009F0C3CF80912A
:10072000FE01809302018091000280930101D0C0FC
:10073000853109F4D2C0843309F45CC1843109F0F5
:10074000B1CF07DF39C092E09093000124E02093FD
:10075000030115BC2FE327BD2EE326BD12E814BD0F
:1007600085BD569A95BBBEDD14BDA99BFECF82E028
:1007700085BB569AB7DDA99BFECF82E085BB8FE390
:1007800087BD8EE386BDD5BC85E5E8DD82ECE6DD80
:1007900086E0E4DD8DE190E090930701809306010F
:1007A000E8E6F0E0AAE0B1E084918D93319687E22B
:1007B00091E08A179B07C1F78BE164DE6FEF7FEF53
:1007C00083DD8C01F30181913F015CDEB8017CDDAA
:1007D0008C018AE091E086159705A1F78EE052DE44
:1007E000B80172DD8C01812C912C5401809106019D
:1007F00090910701A0910801B0910901881699060E
:10080000AA06BB0608F016C1EA81FB818191FB8331
:10081000EA8338DEB80158DD8C01FFEF8F1A9F0A9A
:10082000AF0ABF0AE3CF80910B01833089F138F41E
:10083000813091F08230C9F081EA7CDEBDCF853015
:1008400081F18630C9F7309207012092060188E8CD
:1008500080930B0183E106C03092070120920601CC
:1008600080930B0180930C010FC0E5E0F0E0F09362
:100870000701E093060110920B0186E080930C01C2
:1008800010920D0180930E0181E880930A0194CFAC
:10089000F0920701E09206018091000180930B0124
:1008A000F3CFF0920701E092060180910301F6CFA9
:1008B00080910B01833041F0853009F0BDCF8091EC
:1008C0000C018093030104C080910C01809300010E
:1008D00080E8B3CF84E0809303017DDD883059F058
:1008E000823869F0F0920701E0920601C0920A0195
:1008F000D0920B0161CF74DD6EDD8238E9F72D985F
:10090000E7CF0F5F1F4F109307010093060182E8A6
:10091000BCCF61DD883031F780910B01B0901001C0
:10092000A090110190E4980F509002014424439448
:100930009230F8F050900101823B38F0843B38F05F
:10094000845C93E0492E8230A0F082EA76CF109149
:10095000140186E090E15ADD812F4EDD80E04CDD10
:100960008B2D4ADD8A2D48DD67E080E090E16EDD69
:10097000AFCF00910C0110910D018AE089838B2D7E
:100980009A2D44DDB1948FEF850DB822B016110673
:1009900011F008F0B02EBB2079F0BE016F5F7F4FE1
:1009A0008B2D77DD0B19110940DD5C01642D80E092
:1009B00090E14CDDC5012ADDA52CB12C01151105F6
:1009C00009F486CFBE016F5F7F4F0A151B0568F0E3
:1009D000852D5FDD0A191B0928DD4C01642D80E09F
:1009E00090E134DDC40112DDE9CF802F52DD10E04B
:1009F00000E0F2CF80910B01863060F4843070F417
:100A0000811150CE85E890E07CDDEADCE4DC80FDFD
:100A1000FDCF97CE883008F45BCF44CE00910C0117
:100A200010910D01CFDC8370E9F76FEFC8010EDD87
:100A300062E09BCF802F26DD812F24DD8091C000D6
:100A400080648093C0008091C00086FFFCCFE0915D
:100A50000301E150FF0BEE0FFF1FE357FF4F85919E
:100A600094919093C5008093C400C0CDF894FFCFBB
:00000001FF
