:1000000052C1000060C100005EC100005CC1000080
:100010005AC1000058C1000056C1000054C1000080
:1000200052C1000050C100004EC100004CC1000090
:100030004AC1000048C1000046C1000044C10000A0
:1000400042C1000040C100003EC100003CC10000B0
:100050003AC1000038C1000036C1000034C10000C0
:1000600032C1000030C1000086010100060101001C
:1000700006010000000000004A5441474943452062
:100080006D6B49490065736172454D564E4003A042
:1000900001CF0067003300220010008A0020676F44
:1000A00072504D564E0000891112239B322446ADEA
:1000B000573665BF74488CC19D5AAFD3BE6CCAE534
:1000C000DB7EE9F7F88110080193331A22A5562C3C
:1000D00047B7753E64C99C408DDBBF52AEEDDA6414
:1000E000CBFFF976E802218B30100299132667AF17
:1000F000763444BD554AADC3BC588ED19F6EEBE7F4
:10010000FA7CC8F5D983310A2091121803A7772EFB
:1001100066B5543C45CBBD42ACD99E508FEFFB66D3
:10012000EAFDD874C904428D5316619F702004A95A
:10013000153227BB364CCEC5DF5EEDD7FC6888E1B3
:10014000997AABF3BA85520C4397711E60A11428BB
:1001500005B3373A26CDDE44CFDFFD56ECE9986093
:1001600089FBBB72AA06638F7214409D512225AB96
:10017000343006B9174EEFC7FE5CCCD5DD6AA9E373
:10018000B8788AF19B87730E6295501C41A3352A7B
:1001900024B1163807CFFF46EEDDDC54CDEBB96253
:1001A000A8F99A708B088481951AA793B62CC2A5DA
:1001B000D33EE1B7F04008C919522BDB3A644EED4B
:1001C0005F766DFF7C899400859BB712A6ADD22423
:1001D000C3BFF136E0C1184809D33B5A2AE55E6C2B
:1001E0004FF77D7E6C0AA583B4188691972EE3A7FE
:1001F000F23CC0B5D14229CB38500AD91B666FEF0B
:100200007E744CFD5D8BB502A499961087AFF326E2
:10021000E2BDD034C1C3394A28D11A580BE77F6EEA
:100220006EF55C7C4D0CC685D71EE597F42880A141
:10023000913AA3B3B2444ACD5B5669DF78600CE9CA
:100240001D722FFB3E8DD604C79FF516E4A99020A2
:1002500081BBB332A2C55A4C4BD7795E68E11C68AA
:100260000DF33F7A2E0EE787F61CC495D52AA1A37D
:10027000B03882B193466BCF7A5448DD59622DEB8A
:100280003C700EF91F8FF706E69DD414C5ABB12262
:10029000A0B9923083C77B4E6AD5585C49E33D6A6A
:1002A0002CF11E780F0011241FBECFEFD8E0DEBF67
:1002B000CDBF22E0A0E0B1E001C01D92AC3CB2078E
:1002C000E1F757D197C39CCE8627E82FF0E0EE0FD9
:1002D000FF1FEB55FF4F25913491872F8227932FD6
:1002E000089584E085BD80E887BD8BE092E0A99BFE
:1002F000FECF95BB8150D9F782EC84BDA99BFECF80
:1003000082E085BB5698089515BC82E287BD8CE0DB
:1003100086BD82E085BB5E984E99FECF81E085BDAB
:10032000A99BFECF82E085BB86E487BD98E080E094
:1003300022E0A99BFECF25BB86954E9980689150FF
:10034000C1F7A99BFECF92E095BB90EB97BD4E9B6A
:10035000FECF5E9A0895A99BFECF92E095BB15BC97
:1003600026E427BD25E426BD22E824BD21E025BDE5
:10037000569A95BB91E020E042E852EC32E0682FBB
:100380006923D1F054BD2095A99BFECF35BB990FB1
:10039000B1F792EC211101C092E894BDA99BFECF68
:1003A00092E095BB92EC94BDA99BFECF92E095BBE9
:1003B0009DE897BD5698089544BDE6CF85E5CBDF0F
:1003C00084E0C9DF82E0C7DF80E1C5DF9DCF85E53E
:1003D000C2DF8BE8C0DF98CF85E5BDDF88ECBBDFEF
:1003E00089E5B9DF85E5B7DF88ECB5DF80E0B3CF1D
:1003F000CF93C82F85E5AFDF84E6ADDF8C2FABDF71
:10040000CF9182CFCF93DF93D82FC92F85E5A3DF7C
:1004100089E6A1DF8D2F9FDF8C2F9DDFDF91CF91AC
:1004200073CFCF9385E597DF89E295DF6DDFC82F26
:100430006BDF982F8C2FCF9108951F93CF93DF936D
:10044000182FD92FC62F85E586DF84E484DF812F1E
:1004500082DF8D2F80DF58DF8C2F7DDFDF91CF9102
:100460001F9152CFE0ECF0E0808187FFFDCF8091BB
:10047000C6000895E0ECF0E0908195FFFDCF8093F9
:10048000C6000895EF92FF920F931F93CF93DF93CF
:10049000082FEB01C6DF7C0191DF8370E9F7C7010C
:1004A000B1DF85E558DF80EA56DF8FEF800F53DF3D
:1004B000E88181E08E0F8883F0E0EC5FFE4F86815B
:1004C00097DFF12C0150110BF016110664F4E8814E
:1004D00081E08E0F8883F0E0EC5FFE4F86813BDF8A
:1004E00013DFF394F1CFDF91CF911F910F91FF9024
:1004F000EF9008950F931F93CF93DF938C0185E5C1
:100500002ADF80EE28DFD0E0C0E0F801EC0FFD1F0D
:10051000849121DF2196C830D105B9F7DF91CF91C1
:100520001F910F910895E4E0F1E021E030E0338382
:100530002283868308954BDF8F7E883049F082388E
:1005400071F48DE990E0D6DF47DF41DF8830E9F7CD
:1005500064E080E090E171DF2D9A80E8E4CFE4E090
:10056000F1E022E030E03383228395EA96838783AB
:1005700008950F92CDB7DEB78FE380937E008FEFA3
:100580008BB98FED85B980E880BF8DEC80936400D6
:1005900082E08093C00087E68093C40088E1809366
:1005A000C10086E08093C20082EC84BD85E486BDF4
:1005B00086E487BD81E085BD7AE0672E71E0772E05
:1005C00004E011E0E2E04E2E512C4CDF8B31E9F7D4
:1005D0006FEF7FEF79DE7C0164E0C62E61E0D62EFE
:1005E000560140DFF50181935F01B7016DDE7C01AB
:1005F000A614B704B1F7F801A280B380F3ECAF16EC
:10060000F1E0BF0610F72EDF8E30F9F6B7015CDEA1
:100610004C01AC0CBD1C7601EA14FB0451F022DF46
:10062000F7018683B40150DE4C01FFEFEF1AFF0A99
:10063000F3CF18DFF82E16DF982F8F2D8816990626
:1006400009F0C3CFF8018681883009F4E4C0E8F4EA
:10065000823009F4D4C038F4882309F4DEC0813034
:1006600089F180EA9FC0843009F41CC108F491C06C
:100670008530B9F7ACDE883009F4E6C0F801538262
:10068000428225EA268381E0D6C08F3009F4C3C0B8
:1006900078F48B30A9F08C3021F7EEEFF1E0808117
:1006A00080930201E0E0F2E0808180930101B3C019
:1006B000853109F4B5C0843309F462C1843189F607
:1006C0003ADF3AC092E09093000124E020930301C6
:1006D00015BC26E427BD25E426BD52E8F52EF4BC62
:1006E00085BD569A95BBFDDDF4BCA99BFECF82E08B
:1006F00085BB569AF6DDA99BFECF82E085BB86E4DA
:1007000087BD85E486BD81E085BD85E524DE82EC7C
:1007100022DE86E020DE2DE130E0F8013383228303
:10072000E8E6F0E0AAE0B1E0C601839624912D93BB
:1007300031968A179B07D1F78BE19CDE6FEF7FEF35
:10074000C3DD7C01F60181916F0194DEB701BCDD50
:100750007C01C614D704B1F78EE08CDEB701B4DD9E
:100760005C019AE0E92E91E0F92ED12CC12CF80120
:1007700082819381C816D90608F01FC1F7018191C3
:100780007F0178DEB501A0DD5C01FFEFCF1ADF0A43
:10079000EECF8781833041F138F4813089F08230A7
:1007A000B1F081EAC0DEC8CF853021F18630C9F7CB
:1007B00023E030E03383228388E8878383E105C028
:1007C00023E030E0338322838783808709C025E0DC
:1007D00030E033832283178286E080871186828708
:1007E00081E8F8018683A8CF53824282809100017C
:1007F0008783F6CF5382428280910301F9CF8781AC
:10080000833031F0853069F680858093030103C021
:1008100080858093000180E8C5CF84E08093030148
:10082000D6DD8F7E883049F0823861F0F80153823E
:10083000428225EA268387837FCFCEDDC8DD8F7E87
:100840008238E1F72D98E7CFF801E084F1848485C0
:100850009585D8DD85E57FDD80EA7DDD8FEF8E0D26
:100860007ADD85E578DD84E276DD4EDDF80187838B
:100870003CE0A32E31E0B32E42E0842E912CE8140C
:10088000F90440F041DDF50181935F01FFEF8F1A1C
:100890009F0AF5CF2FEFE21AF20AF801F382E28203
:1008A00082E8A0CF94DD883009F0E8CEF801878196
:1008B000B484A58490E4980F9090020188248394D6
:1008C0009230F0F090900101823B38F0843B38F098
:1008D000845C23E0822E823098F082EA63CFF08835
:1008E00086E090E18FDD8F2D83DD80E081DD8B2D33
:1008F0007FDD8A2D7DDD67E080E090E19EDD8BCF9E
:10090000F801E084F1848AE089838B2D9A2D7ADDC9
:10091000B1948FEF890DB822BE141F0411F008F0B6
:10092000BE2CBB2079F0BE016F5F7F4F8B2DAADDFF
:10093000EB18F10876DD5C01682D80E090E17DDD4B
:10094000C50160DD292C312CE114F10409F463CFD9
:10095000BE016F5F7F4FE214F30468F0892D92DDD2
:10096000E218F3085EDD5C01682D80E090E165DD52
:10097000C50148DDE9CF8E2D85DDF12CE12CF2CFCC
:100980008781863060F4843070F481116ACE85E806
:1009900090E0B0DD21DD1BDD80FDFDCF91CE883004
:1009A00008F439CF5ECEE084F18408DD8370E9F786
:1009B0006FEFC70142DD62E09FCF8A2D5BDD8B2D9B
:1009C00059DDE0ECF0E0808180648083E0ECF0E0D1
:1009D000808186FFFBCFE0910301E150FF0BEE0F1A
:1009E000FF1FE357FF4F85919491E4ECF0E0918372
:0809F0008083EBCDF894FFCFEA
:00000001FF
