:1000000052C1000060C100005EC100005CC1000080
:100010005AC1000058C1000056C1000054C1000080
:1000200052C1000050C100004EC100004CC1000090
:100030004AC1000048C1000046C1000044C10000A0
:1000400042C1000040C100003EC100003CC10000B0
:100050003AC1000038C1000036C1000034C10000C0
:1000600032C1000030C1000086010100060101001C
:1000700006010000000000004A5441474943452062
:100080006D6B49490065736172454D564E4003A042
:1000900001CF0067003300220010008A0020676F44
:1000A00072504D564E0000891112239B322446ADEA
:1000B000573665BF74488CC19D5AAFD3BE6CCAE534
:1000C000DB7EE9F7F88110080193331A22A5562C3C
:1000D00047B7753E64C99C408DDBBF52AEEDDA6414
:1000E000CBFFF976E802218B30100299132667AF17
:1000F000763444BD554AADC3BC588ED19F6EEBE7F4
:10010000FA7CC8F5D983310A2091121803A7772EFB
:1001100066B5543C45CBBD42ACD99E508FEFFB66D3
:10012000EAFDD874C904428D5316619F702004A95A
:10013000153227BB364CCEC5DF5EEDD7FC6888E1B3
:10014000997AABF3BA85520C4397711E60A11428BB
:1001500005B3373A26CDDE44CFDFFD56ECE9986093
:1001600089FBBB72AA06638F7214409D512225AB96
:10017000343006B9174EEFC7FE5CCCD5DD6AA9E373
:10018000B8788AF19B87730E6295501C41A3352A7B
:1001900024B1163807CFFF46EEDDDC54CDEBB96253
:1001A000A8F99A708B088481951AA793B62CC2A5DA
:1001B000D33EE1B7F04008C919522BDB3A644EED4B
:1001C0005F766DFF7C899400859BB712A6ADD22423
:1001D000C3BFF136E0C1184809D33B5A2AE55E6C2B
:1001E0004FF77D7E6C0AA583B4188691972EE3A7FE
:1001F000F23CC0B5D14229CB38500AD91B666FEF0B
:100200007E744CFD5D8BB502A499961087AFF326E2
:10021000E2BDD034C1C3394A28D11A580BE77F6EEA
:100220006EF55C7C4D0CC685D71EE597F42880A141
:10023000913AA3B3B2444ACD5B5669DF78600CE9CA
:100240001D722FFB3E8DD604C79FF516E4A99020A2
:1002500081BBB332A2C55A4C4BD7795E68E11C68AA
:100260000DF33F7A2E0EE787F61CC495D52AA1A37D
:10027000B03882B193466BCF7A5448DD59622DEB8A
:100280003C700EF91F8FF706E69DD414C5ABB12262
:10029000A0B9923083C77B4E6AD5585C49E33D6A6A
:1002A0002CF11E780F0011241FBECFEFD8E0DEBF67
:1002B000CDBF22E0A0E0B1E001C01D92AC3CB2078E
:1002C000E1F741D161C39CCE8627E82FF0E0EE0F25
:1002D000FF1FEB55FF4F25913491872F8227932FD6
:1002E000089584E085BD80E887BD8BE092E0A99BFE
:1002F000FECF95BB8150D9F782EC84BDA99BFECF80
:1003000082E085BB5698089515BC82E287BD8CE0DB
:1003100086BD82E085BB5E984E99FECF81E085BDAB
:10032000A99BFECF82E085BB86E487BD91E080E09B
:1003300022E0A99BFECF25BB4E99892B990FC9F7C7
:10034000A99BFECF92E095BB90EB97BD4E9BFECF55
:100350005E9A0895A99BFECF92E095BB15BC26E45A
:1003600027BD25E426BD22E824BD21E025BD569AFF
:1003700095BB91E020E042E852EC32E0682F69231F
:10038000D1F054BD2095A99BFECF35BB990FB1F795
:1003900092EC211101C092E894BDA99BFECF92E09E
:1003A00095BB92EC94BDA99BFECF92E095BB9DE8D6
:1003B00097BD5698089544BDE6CF85E5CBDF84E030
:1003C000C9DF82E0C7DF80E1C5DF9ECF85E5C2DF00
:1003D0008BE8C0DF99CF85E5BDDF88ECBBDF89E521
:1003E000B9DF85E5B7DF88ECB5DF80E0B3DFEEDFAE
:1003F0008E70E9F308958EBB85E5ACDF84E6AADF55
:100400008EB3A8DF81CF8EBB9ABD85E5A3DF89E6D9
:10041000A1DF8EB39FDF8AB59DDF76CF85E59ADFBA
:1004200089E298DF71DF8EBB6FDF9EB38927982743
:10043000892708956EBB8ABD9BBD85E58BDF84E46B
:1004400089DF8AB587DF8BB585DF5EDF8EB382DF1C
:100450005BCF8EBB85E57EDF80EA7CDF8EB37ACF13
:10046000E0ECF0E0808187FFFDCF8091C600089529
:10047000E0ECF0E0908195FFFDCF8093C6000895F9
:10048000EF92FF921F93CF93DF93D82FC62F1FEFCA
:10049000180FC4DF7C0191DF8370E9F7C701B3DF78
:1004A000812FD7DFEC2FF0E0EC5FFE4F8681A3DFDA
:1004B000DC0FCF5FCD1741F0EC2FF0E0EC5FFE4F8B
:1004C000868148DF21DFF5CF8C2FDF91CF911F91FF
:1004D000FF90EF9008950F931F93CF938C0185E5C4
:1004E00039DF80EE37DFC8E0F801849133DF0F5F3A
:1004F0001F4FC150C9F7CF911F910F910895E4E0AC
:10050000F1E021E030E0338322838683089563DFC6
:100510005DDF8F7E883031F0823859F48DE990E0CC
:10052000DADF59DF64E080E090E184DF2D9A80E833
:10053000E6CFE4E0F1E022E030E03383228395EA85
:100540009683878308958FE380937E008FEF8BB926
:100550008FED85B980E880BF8DEC8093640082E0E8
:100560008093C00087E68093C40088E18093C10037
:1005700086E08093C20082EC84BD85E486BD86E47B
:1005800087BD81E085BD6AE0862E61E0962EC4E0DD
:10059000D1E072E0272E312CE5EA4E2E61DF8B315F
:1005A000E9F76FEF7FEF90DE8C0154E0E52E51E02C
:1005B000F52E670155DFF60181936F01B80184DEE6
:1005C0008C01C814D904B1F7CA80DB80F3ECCF16D4
:1005D000F1E0DF0618F744DF8E3001F7B80174DE72
:1005E0005C01CE0CDF1C8701C016D10649F038DF54
:1005F000F8018683B50168DE5C010F5F1F4FF4CF01
:100600002FDF182F2DDF982F812FA816B90609F09C
:10061000C5CF8E81883009F4DCC0D8F4823009F46B
:10062000CCC038F4882309F4D6C0813079F180EA4F
:1006300098C0843009F406C108F48AC08530B9F73F
:10064000C5DE883009F4D8C03B822A824E8281E020
:10065000CEC08F3009F4BDC078F48B30A9F08C3057
:1006600031F7EEEFF1E0808180930201E0E0F2E00B
:10067000808180930101ADC0853109F4AFC084331E
:1006800009F44BC1843199F642DF38C092E090936F
:10069000000124E02093030115BC26E427BD25E4D6
:1006A00026BD12E814BD85BD569A95BB1ADE14BD51
:1006B000A99BFECF82E085BB569A13DEA99BFECF95
:1006C00082E085BB86E487BD85E486BD81E085BD8B
:1006D00085E540DE82EC3EDE86E03CDE2DE130E06A
:1006E0003B832A83E8E6F0E0AAE0B1E0C701839605
:1006F00024912D9331968A179B07D1F78BE1B8DEB1
:100700006FEF7FEFE1DD8C01F70181917F01B0DEBA
:10071000B801DADD8C01E814F904B1F78EE0A8DE47
:10072000B801D2DD6C010AE011E0F12CE12C8A81E4
:100730009B81E816F90608F00AC1F80181918F0142
:1007400097DEB601C1DD6C01FFEFEF1AFF0AEFCFB4
:100750008F81833039F138F4813089F08230B1F003
:1007600081EACDDECBCF853019F18630C9F783E041
:1007700090E09B838A8388E88F8383E105C0E3E070
:10078000F0E0FB83EA838F83888709C025E030E0AF
:100790003B832A831F8286E0888719868A8781E8BF
:1007A0008E83ACCF3B822A82809100018F83F7CF6A
:1007B0003B822A8280910301F9CF8F81833031F00F
:1007C000853071F688858093030103C08885809306
:1007D000000180E8C6CF84E080930301F7DD8F7EBF
:1007E000883039F0823831F03B822A824E828F8302
:1007F00085CFF1DD2D98EDCF088519858C859D85F8
:1008000002DE8FEF800F25DE85E5A4DD84E2A2DD28
:100810007BDD8F833CE0C32E31E0D32E42E0A42E5B
:10082000B12C0A151B0540F06FDDF60181936F01B5
:10083000FFEFAF1ABF0AF5CF0F5F1F4F1B830A836D
:1008400082E8AECFC3DD883009F0FECE8F81DC8434
:10085000CD8490E4980F6090020155245394923017
:10086000F0F060900101823B38F0843B38F0845C0A
:1008700023E0522E823098F082EA73CF188986E006
:1008800090E1C1DD812FB7DD80E0B5DD8D2DB3DDD9
:100890008C2DB1DD67E080E090E1CCDD9ACF08855A
:1008A00019858D2D9C2DAFDDD1948FEF860DD8222B
:1008B000D016110611F008F0D02E9AE0792EDD2026
:1008C00071F06AE08D2DDCDD782E0D191109A6DDA1
:1008D0006C01652D80E090E1ADDDC60194DDC62C94
:1008E000D12C0115110509F474CF672D0C151D05C8
:1008F00070F0862DC5DD782E0C191D098FDD5C0189
:10090000652D80E090E196DDC5017DDDEACF802F89
:10091000B7DD782E10E000E0F1CF8F81863048F40B
:10092000843058F4811183CE85E890E0D4DD53DD26
:10093000ABCE883008F4E2CE7ACE088519853DDD4D
:100940008370E9F76FEFC80175DD62E0A4CF8C2DED
:100950008FDD8D2D8DDDE0ECF0E080818064808383
:10096000E0ECF0E0808186FFFBCFE0910301E150F5
:10097000FF0BEE0FFF1FE357FF4F85919491E4ECBF
:0C098000F0E0918380830ACEF894FFCF52
:00000001FF
