:1000000052C1000060C100005EC100005CC1000080
:100010005AC1000058C1000056C1000054C1000080
:1000200052C1000050C100004EC100004CC1000090
:100030004AC1000048C1000046C1000044C10000A0
:1000400042C1000040C100003EC100003CC10000B0
:100050003AC1000038C1000036C1000034C10000C0
:1000600032C1000030C1000086010100060101001C
:1000700006010000000000004A5441474943452062
:100080006D6B49490065736172454D564E4003A042
:1000900001CF0067003300220010008A0020676F44
:1000A00072504D564E0000891112239B322446ADEA
:1000B000573665BF74488CC19D5AAFD3BE6CCAE534
:1000C000DB7EE9F7F88110080193331A22A5562C3C
:1000D00047B7753E64C99C408DDBBF52AEEDDA6414
:1000E000CBFFF976E802218B30100299132667AF17
:1000F000763444BD554AADC3BC588ED19F6EEBE7F4
:10010000FA7CC8F5D983310A2091121803A7772EFB
:1001100066B5543C45CBBD42ACD99E508FEFFB66D3
:10012000EAFDD874C904428D5316619F702004A95A
:10013000153227BB364CCEC5DF5EEDD7FC6888E1B3
:10014000997AABF3BA85520C4397711E60A11428BB
:1001500005B3373A26CDDE44CFDFFD56ECE9986093
:1001600089FBBB72AA06638F7214409D512225AB96
:10017000343006B9174EEFC7FE5CCCD5DD6AA9E373
:10018000B8788AF19B87730E6295501C41A3352A7B
:1001900024B1163807CFFF46EEDDDC54CDEBB96253
:1001A000A8F99A708B088481951AA793B62CC2A5DA
:1001B000D33EE1B7F04008C919522BDB3A644EED4B
:1001C0005F766DFF7C899400859BB712A6ADD22423
:1001D000C3BFF136E0C1184809D33B5A2AE55E6C2B
:1001E0004FF77D7E6C0AA583B4188691972EE3A7FE
:1001F000F23CC0B5D14229CB38500AD91B666FEF0B
:100200007E744CFD5D8BB502A499961087AFF326E2
:10021000E2BDD034C1C3394A28D11A580BE77F6EEA
:100220006EF55C7C4D0CC685D71EE597F42880A141
:10023000913AA3B3B2444ACD5B5669DF78600CE9CA
:100240001D722FFB3E8DD604C79FF516E4A99020A2
:1002500081BBB332A2C55A4C4BD7795E68E11C68AA
:100260000DF33F7A2E0EE787F61CC495D52AA1A37D
:10027000B03882B193466BCF7A5448DD59622DEB8A
:100280003C700EF91F8FF706E69DD414C5ABB12262
:10029000A0B9923083C77B4E6AD5585C49E33D6A6A
:1002A0002CF11E780F0011241FBECFEFD8E0DEBF67
:1002B000CDBF23E0A0E0B1E001C01D92AA30B2079B
:1002C000E1F760D1E6C39CCE8627E82FF0E0EE0F81
:1002D000FF1FEB55FF4F25913491872F90E0822728
:1002E0009327089584E085BD8FE787BD8BE092E07A
:1002F000A99BFECF95BB8150D9F782EC84BDA99B09
:10030000FECF82E085BB5698089515BC9FE197BD4E
:100310009CE096BD92E095BB5E984E99FECF91E031
:1003200095BDA99BFECF92E095BB9FE397BD28E0CA
:1003300032E0A99BFECF35BB99B1990F9078869595
:10034000892B2150B1F7A99BFECF92E095BB9FE985
:1003500097BD4E9BFECF5E9A90E00895A99BFECF7D
:1003600092E095BB15BC2FE327BD2EE326BD22E806
:1003700024BD21E025BD569A95BB91E020E042E8DE
:1003800052EC32E0682F6923D9F054BD2095A99B27
:10039000FECF35BB990FB1F792EC211101C092E865
:1003A00094BDA99BFECF92E095BB92EC94BDA99B16
:1003B000FECF92E095BB9FE797BD569890E00895D9
:1003C00044BDE5CF85E5CADF84E0C8DF82E0C6DF53
:1003D00080E1C4DF9ACF85E5C1DF8BE8BFDF95CF31
:1003E00085E5BCDF88ECBADF89E5B8DF85E5B6DFF7
:1003F00088ECB4DF80E0B2CFCF93C82F85E5AEDFC5
:1004000084E6ACDF8C2FAADFCF917FCFCF93DF9331
:10041000D82FC92F85E5A2DF89E6A0DF8D2F9EDFCB
:100420008C2F9CDFDF91CF9170CFCF93DF9385E549
:1004300095DF89E293DF69DFEC0167DF20E0382F89
:10044000C9018C2B9D2BDF91CF9108951F93CF93E2
:10045000DF93182FD92FC62F85E580DF84E47EDF58
:10046000812F7CDF8D2F7ADF50DF8C2F77DFDF91BC
:10047000CF911F914ACF8091C00087FFFCCF809120
:10048000C60008959091C00095FFFCCF8093C600F0
:100490000895EF92FF920F931F93CF93DF93082F4E
:1004A000EB01C3DF7C018EDF8370E9F7C701AEDFAC
:1004B00085E554DF80EA52DF8FEF800F4FDFE88160
:1004C00081E08E0F8883F0E0E65FFE4F808194DF4D
:1004D000F12C0150110BF016110664F4E88181E053
:1004E0008E0F8883F0E0E65FFE4F808137DF0DDFFF
:1004F000F394F1CFDF91CF911F910F91FF90EF9087
:1005000008950F931F93CF93DF938C0185E526DF2A
:1005100080EE24DFD0E0C0E0F801EC0FFD1F8491F5
:100520001DDF2196C830D105B9F7DF91CF911F911A
:100530000F91089550DF883049F08238B1F48DE989
:1005400090E0DFDF4DDF47DF8830E9F764E080E0EF
:1005500090E17CDF2D9A81E090E0909307018093F9
:10056000060180E880930A01089582E090E090936C
:1005700007018093060185EA80930A0181E0809358
:100580000B01089500D00F92CDB7DEB78FE38093B3
:100590007E009FEF9BB99FED95B990E890BF9DECD1
:1005A0009093640092E09093C00097E69093C4000B
:1005B00098E19093C10096E09093C20092EC94BDB4
:1005C0009EE396BD87BD81E085BDEE24E394F12CCA
:1005D00050E8D52E62E0262E312CCC24C3944BDF7C
:1005E0008B31E9F7EDE6F2E005911491009534E0E6
:1005F000832E31E0932E54013EDFF50181935F019C
:10060000B80162DE8C01FAE0AF16F1E0BF06A1F797
:1006100032DF8E3021F7B80157DE8C012AE031E05D
:100620003B832A835901412C512C320180910601D0
:1006300090910701A0910801B0910901481659064F
:100640006A067B0668F417DFF50181935F01B80144
:100650003BDE8C01FFEF4F1A5F0A6F0A7F0AE6CF7D
:100660000ADFB82E08DF982F8B2D0817190709F01D
:10067000B6CF80910A01883009F40CC120F5823090
:1006800009F4F8C068F4882309F40BC18130B1F192
:10069000F0920701E092060120EA20930A0167C068
:1006A000843009F444C108F499C0853089F793DE99
:1006B000883009F40EC13092070120920601E5EA64
:1006C000E0930A01FDC08F3009F4E4C068F48B3078
:1006D00099F08C30E9F68091FE01809302018091BF
:1006E000000280930101D6C0853109F4DDC0843356
:1006F00009F493C1843161F61DDF39C092E0909313
:10070000000124E02093030115BC2FE327BD2EE355
:1007100026BD12E814BD85BD569A95BBE3DD14BD18
:10072000A99BFECF82E085BB569ADCDDA99BFECF5C
:1007300082E085BB8FE387BD8EE386BDC5BC85E5C2
:100740000DDE82EC0BDE86E009DE2DE130E0309339
:10075000070120930601E8E6F0E0AAE0B1E0849109
:100760008D93319687E291E08A179B07C1F78BE161
:1007700089DE6FEF7FEFA8DD8C01F40181914F01DD
:1007800081DEB801A1DD8C01FAE08F16F1E09F0651
:10079000A1F78EE077DEB80197DD8C01812C912CDA
:1007A00054018091060190910701A0910801B09138
:1007B000090188169906AA06BB0608F04EC1EA810F
:1007C000FB818191FB83EA835DDEB8017DDD8C01D5
:1007D000FFEF8F1A9F0AAF0ABF0AE3CF80910B0188
:1007E0008330C1F160F48130C9F0823011F1F092B0
:1007F0000701E092060181EA80930A01B8CF8530B3
:1008000091F18630A1F783E090E090930701809307
:10081000060188E880930B0183E108C0E3E0F0E083
:10082000F0930701E093060180930B0180930C0184
:100830000FC025E030E030930701209306011092AD
:100840000B0186E080930C0110920D0180930E0144
:1008500081E8D2CF309207012092060180910001F9
:1008600080930B01F5CF3092070120920601809111
:100870000301F6CF80910B01833041F0853009F000
:10088000B6CF80910C018093030104C080910C01CC
:1008900080930001F0920701E0920601D0920A01D4
:1008A00066CF84E08093030196DD883061F0823862
:1008B00071F0309207012092060195EA90930A01A7
:1008C000C0920B0154CF8CDD86DD8238E9F72D987C
:1008D000E1CF00910C0110910D01809110019091D8
:1008E000110194DD85E53ADD80EA38DD8FEF800F78
:1008F00035DD85E533DD84E231DD07DD80930B01F5
:1009000022E0A22EB12C0A151B0548F0FEDCF501F1
:10091000E65FFE4F8083FFEFAF1ABF0AF4CF0F5F91
:100920001F4F109307010093060182E865CF53DD46
:10093000883009F0C0CE80910B01B0901001A090DA
:10094000110190E4980F6090020177247394923023
:1009500018F160900101823B38F0843B58F0845CD0
:1009600093E0792E8230C0F0F0920701E092060108
:1009700082EA42CF1091140186E090E147DD812F99
:100980003BDD80E039DD8B2D37DD8A2D35DD67E0FD
:1009900080E090E15BDD7ECF00910C0110910D01B4
:1009A0008AE089838B2D9A2D31DDB1948FEF860DEE
:1009B000B822B016110611F008F0B02EBB2079F065
:1009C000BE016F5F7F4F8B2D64DD0B1911092DDD8B
:1009D0005C01672D80E090E139DDC50117DDA62CB3
:1009E000B12C0115110509F455CFBE016F5F7F4F82
:1009F0000A151B0568F0862D4CDD0A191B0915DD4B
:100A00002C01672D80E090E121DDC201FFDCE9CF00
:100A1000802F3FDD10E000E0F2CF80910B018630A7
:100A200060F4843070F4811133CE85E890E069DDA4
:100A3000D7DCD1DC80FDFDCF5FCE883008F42ACF33
:100A400027CE00910C0110910D01BCDC8370E9F7F9
:100A50006FEFC801FBDC62E09BCF802F13DD812F9D
:100A600011DD8091C00080648093C0008091C0003F
:100A700086FFFCCFE0910301E150FF0BEE0FFF1F5B
:100A8000E357FF4F859194919093C5008093C400E4
:060A9000A6CDF894FFCF93
:00000001FF
