:1000000052C1000060C100005EC100005CC1000080
:100010005AC1000058C1000056C1000054C1000080
:1000200052C1000050C100004EC100004CC1000090
:100030004AC1000048C1000046C1000044C10000A0
:1000400042C1000040C100003EC100003CC10000B0
:100050003AC1000038C1000036C1000034C10000C0
:1000600032C1000030C1000086010100060101001C
:1000700006010000000000004A5441474943452062
:100080006D6B49490065736172454D564E4003A042
:1000900001CF0067003300220010008A0020676F44
:1000A00072504D564E0000891112239B322446ADEA
:1000B000573665BF74488CC19D5AAFD3BE6CCAE534
:1000C000DB7EE9F7F88110080193331A22A5562C3C
:1000D00047B7753E64C99C408DDBBF52AEEDDA6414
:1000E000CBFFF976E802218B30100299132667AF17
:1000F000763444BD554AADC3BC588ED19F6EEBE7F4
:10010000FA7CC8F5D983310A2091121803A7772EFB
:1001100066B5543C45CBBD42ACD99E508FEFFB66D3
:10012000EAFDD874C904428D5316619F702004A95A
:10013000153227BB364CCEC5DF5EEDD7FC6888E1B3
:10014000997AABF3BA85520C4397711E60A11428BB
:1001500005B3373A26CDDE44CFDFFD56ECE9986093
:1001600089FBBB72AA06638F7214409D512225AB96
:10017000343006B9174EEFC7FE5CCCD5DD6AA9E373
:10018000B8788AF19B87730E6295501C41A3352A7B
:1001900024B1163807CFFF46EEDDDC54CDEBB96253
:1001A000A8F99A708B088481951AA793B62CC2A5DA
:1001B000D33EE1B7F04008C919522BDB3A644EED4B
:1001C0005F766DFF7C899400859BB712A6ADD22423
:1001D000C3BFF136E0C1184809D33B5A2AE55E6C2B
:1001E0004FF77D7E6C0AA583B4188691972EE3A7FE
:1001F000F23CC0B5D14229CB38500AD91B666FEF0B
:100200007E744CFD5D8BB502A499961087AFF326E2
:10021000E2BDD034C1C3394A28D11A580BE77F6EEA
:100220006EF55C7C4D0CC685D71EE597F42880A141
:10023000913AA3B3B2444ACD5B5669DF78600CE9CA
:100240001D722FFB3E8DD604C79FF516E4A99020A2
:1002500081BBB332A2C55A4C4BD7795E68E11C68AA
:100260000DF33F7A2E0EE787F61CC495D52AA1A37D
:10027000B03882B193466BCF7A5448DD59622DEB8A
:100280003C700EF91F8FF706E69DD414C5ABB12262
:10029000A0B9923083C77B4E6AD5585C49E33D6A6A
:1002A0002CF11E780F0011241FBECFEFD8E0DEBF67
:1002B000CDBF22E0A0E0B1E001C01D92AC3CB2078E
:1002C000E1F758D1B4C39CCE8627E82FF0E0EE0FBB
:1002D000FF1FEB55FF4F25913491872F8227932FD6
:1002E000089584E085BD80E887BD8BE092E0A99BFE
:1002F000FECF95BB8150D9F782EC84BDA99BFECF80
:1003000082E085BB5698089515BC82E287BD8CE0DB
:1003100086BD82E085BB5E984E99FECF81E085BDAB
:10032000A99BFECF82E085BB86E487BD98E080E094
:1003300022E0A99BFECF25BB86954E9980689150FF
:10034000C1F7A99BFECF92E095BB90EB97BD4E9B6A
:10035000FECF5E9A0895A99BFECF92E095BB15BC97
:1003600026E427BD25E426BD22E824BD21E025BDE5
:10037000569A95BB91E020E042E852EC32E0682FBB
:100380006923D1F054BD2095A99BFECF35BB990FB1
:10039000B1F792EC211101C092E894BDA99BFECF68
:1003A00092E095BB92EC94BDA99BFECF92E095BBE9
:1003B0009DE897BD5698089544BDE6CF85E5CBDF0F
:1003C00084E0C9DF82E0C7DF80E1C5DF9DCF85E53E
:1003D000C2DF8BE8C0DF98CF85E5BDDF88ECBBDFEF
:1003E00089E5B9DF85E5B7DF88ECB5DF80E0B3CF1D
:1003F000CF93C82F85E5AFDF84E6ADDF8C2FABDF71
:10040000CF9182CFCF93DF93D82FC92F85E5A3DF7C
:1004100089E6A1DF8D2F9FDF8C2F9DDFDF91CF91AC
:1004200073CFCF9385E597DF89E295DF6DDFC82F26
:100430006BDF982F8C2FCF9108951F93CF93DF936D
:10044000182FD92FC62F85E586DF84E484DF812F1E
:1004500082DF8D2F80DF58DF8C2F7DDFDF91CF9102
:100460001F9152CF8091C00087FFFCCF8091C600C2
:1004700008959091C00095FFFCCF8093C600089529
:10048000EF92FF920F931F93CF93DF93082FEB010F
:10049000C8DF7C0193DF8370E9F7C701B3DF85E52F
:1004A0005ADF80EA58DF8FEF800F55DFE88181E067
:1004B0008E0F8883F0E0E65FFE4F808199DFF12C9C
:1004C0000150110BF016110664F4E88181E08E0FE3
:1004D0008883F0E0E65FFE4F80813DDF15DFF39417
:1004E000F1CFDF91CF911F910F91FF90EF90089581
:1004F0000F931F93CF93DF938C0185E52CDF80EE64
:100500002ADFD0E0C0E0F801EC0FFD1F849123DF6B
:100510002196C830D105B9F7DF91CF911F910F9186
:10052000089521E030E03093070120930601809385
:100530000A0108954CDF8F7E883049F0823871F4CB
:100540008DE990E0D5DF48DF42DF8830E9F764E0ED
:1005500080E090E172DF2D9A80E8E3CF22E030E086
:10056000309307012093060195EA90930A01809346
:100570000B0108950F92CDB7DEB78FE380937E0015
:100580008FEF8BB98FED85B980E880BF8DEC8093BC
:10059000640082E08093C00087E68093C40088E115
:1005A0008093C10086E08093C20082EC84BD85E424
:1005B00086BD86E487BD81E085BD52E0E52EF12C45
:1005C00063E0662E712C4EDF8B31E9F76FEF7FEF22
:1005D0007BDE5C0144E0C42E41E0D42E860142DF84
:1005E000F80181938F01B5016FDE5C01F1E00A3003
:1005F0001F07A9F70091060110910701033C81E054
:10060000180708F72FDF8E30F1F6B5015DDE5C01CB
:100610003AE0232E31E0332E065F1E4F4101801653
:10062000910641F01FDFF40181934F01B5014CDECB
:100630005C01F5CF17DF182F15DF982F812FA81633
:10064000B90609F0C0CF80910A01883009F4F7C0DB
:1006500008F5823009F4E3C038F4882309F4F1C0C6
:10066000813099F180EAA0C0843009F432C108F4E5
:1006700091C08530B9F7ABDE883009F4FCC0F09248
:100680000701E0920601E5EAE0930A01F1E0F09348
:100690000B0155C08F3009F4D2C068F48B3099F04B
:1006A0008C3001F78091FE0180930201809100025D
:1006B00080930101C4C0853109F4C6C0843309F4B4
:1006C0007AC1843179F636DF3AC092E09093000126
:1006D00024E02093030115BC26E427BD25E426BDB4
:1006E00012E814BD85BD569A95BBFBDD14BDA99BD0
:1006F000FECF82E085BB569AF4DDA99BFECF82E057
:1007000085BB86E487BD85E486BDF1E0F5BD85E562
:1007100022DE82EC20DE86E01EDE8DE190E090930A
:10072000070180930601E8E6F0E0AAE0B1E08491D9
:100730008D93319687E291E08A179B07C1F78BE191
:1007400098DE6FEF7FEFC0DD8C01F60181916F01C4
:1007500090DEB801B9DD8C01FAE0CF16F1E0DF06DA
:10076000A1F78EE086DEB801AFDD6C0110E000E09D
:1007700080910601909107010817190708F03BC105
:10078000F10181911F0175DEB6019EDD6C010F5FE5
:100790001F4FEECF80910B01833089F138F4813007
:1007A00091F08230C9F081EABCDEC9CF853081F199
:1007B0008630C9F77092070160920601F8E8F0935D
:1007C0000B0183E106C070920701609206018093DD
:1007D0000B0180930C010FC0E5E0F0E0F0930701FE
:1007E000E093060110920B0186E080930C011092B9
:1007F0000D0180930E0181E880930A01A0CFF09251
:100800000701E09206018091000180930B01F3CF74
:10081000F0920701E092060180910301F6CF8091EA
:100820000B01833041F0853009F0BDCF80910C0180
:100830008093030104C080910C018093000180E843
:10084000B3CF84E080930301C2DD8F7E883061F0F6
:10085000823879F0F0920701E092060195EA9093D0
:100860000A0180930B016BCFB7DDB1DD8F7E82383B
:10087000E1F72D98E4CF00910C0110910D018091CA
:10088000100190911101BEDD85E565DD80EA63DD33
:100890008FEF800F60DD85E55EDD84E25CDD34DDB9
:1008A00080930B0122E0A22EB12C0A151B0548F003
:1008B0002BDDF501E65FFE4F80838FEFA81AB80AA3
:1008C000F4CF0F5F1F4F109307010093060182E8DA
:1008D00093CF7DDD883009F0D2CE80910B01B090AE
:1008E0001001A090110190E4980F5090020144244F
:1008F00043949230F8F050900101823B38F0843BF1
:1009000038F0845C93E0492E8230A0F082EA4CCF2C
:100910001091140186E090E175DD812F69DD80E0A2
:1009200067DD8B2D65DD8A2D63DD67E080E090E17A
:1009300084DD85CF00910C0110910D019AE099831F
:100940008B2D9A2D5FDDB1948FEF850DB822B016F7
:10095000110611F008F0B02EBB2079F0BE016F5FD8
:100960007F4F8B2D8DDD0B1911095BDD5C01642D33
:1009700080E090E162DDC50145DDA52CB12C0115BB
:10098000110509F45CCFBE016F5F7F4F0A151B058F
:1009900068F0852D75DD0A191B0943DD4C01642DB6
:1009A00080E090E14ADDC4012DDDE9CF802F68DDD4
:1009B00010E000E0F2CF80910B01863060F48430CB
:1009C00070F481114FCE85E890E092DD05DDFFDC0B
:1009D00080FDFDCF78CE883008F431CF43CE009132
:1009E0000C0110910D01EADC8370E9F76FEFC8018B
:1009F00024DD62E09BCF8C2D3CDD8D2D3ADD809196
:100A0000C00080648093C0008091C00086FFFCCF4E
:100A1000E0910301E150FF0BEE0FFF1FE357FF4F83
:100A2000859194919093C5008093C400CCCDF894A7
:020A3000FFCFF6
:00000001FF
