:1000000052C100006BC1000069C1000067C100005F
:1000100065C1000063C1000061C100005FC1000054
:100020005DC100005BC1000059C1000057C1000064
:1000300055C1000053C1000051C100004FC1000074
:100040004DC100004BC1000049C1000047C1000084
:1000500045C1000043C1000041C100003FC1000094
:100060003DC100003BC10000860101000601010006
:1000700006010000000000004A5441474943452062
:100080006D6B49490065736172454D564E4003A042
:1000900001CF0067003300220010008A0020676F44
:1000A00072504D564E0000891112239B322446ADEA
:1000B000573665BF74488CC19D5AAFD3BE6CCAE534
:1000C000DB7EE9F7F88110080193331A22A5562C3C
:1000D00047B7753E64C99C408DDBBF52AEEDDA6414
:1000E000CBFFF976E802218B30100299132667AF17
:1000F000763444BD554AADC3BC588ED19F6EEBE7F4
:10010000FA7CC8F5D983310A2091121803A7772EFB
:1001100066B5543C45CBBD42ACD99E508FEFFB66D3
:10012000EAFDD874C904428D5316619F702004A95A
:10013000153227BB364CCEC5DF5EEDD7FC6888E1B3
:10014000997AABF3BA85520C4397711E60A11428BB
:1001500005B3373A26CDDE44CFDFFD56ECE9986093
:1001600089FBBB72AA06638F7214409D512225AB96
:10017000343006B9174EEFC7FE5CCCD5DD6AA9E373
:10018000B8788AF19B87730E6295501C41A3352A7B
:1001900024B1163807CFFF46EEDDDC54CDEBB96253
:1001A000A8F99A708B088481951AA793B62CC2A5DA
:1001B000D33EE1B7F04008C919522BDB3A644EED4B
:1001C0005F766DFF7C899400859BB712A6ADD22423
:1001D000C3BFF136E0C1184809D33B5A2AE55E6C2B
:1001E0004FF77D7E6C0AA583B4188691972EE3A7FE
:1001F000F23CC0B5D14229CB38500AD91B666FEF0B
:100200007E744CFD5D8BB502A499961087AFF326E2
:10021000E2BDD034C1C3394A28D11A580BE77F6EEA
:100220006EF55C7C4D0CC685D71EE597F42880A141
:10023000913AA3B3B2444ACD5B5669DF78600CE9CA
:100240001D722FFB3E8DD604C79FF516E4A99020A2
:1002500081BBB332A2C55A4C4BD7795E68E11C68AA
:100260000DF33F7A2E0EE787F61CC495D52AA1A37D
:10027000B03882B193466BCF7A5448DD59622DEB8A
:100280003C700EF91F8FF706E69DD414C5ABB12262
:10029000A0B9923083C77B4E6AD5585C49E33D6A6A
:1002A0002CF11E780F0011241FBECFEFD8E0DEBF67
:1002B000CDBF11E0A0E0B1E0E6E8FCE002C00590AF
:1002C0000D92A230B107D9F723E0A2E0B1E001C05E
:1002D0001D92AA3CB207E1F7E7D1D3C491CE86279D
:1002E000E82FF0E0EE0FFF1FEB55FF4F2591349103
:1002F000872F8227932F0895569A0BB038E720E373
:100300002A95F1F75E9801F025E12A95F1F780FB37
:1003100006F887953041000087F90BB8A8F727E168
:100320002A95F1F730FB06F80BB828E12A95F1F78A
:100330005E9A5698089556985E981092850010928D
:100340008400A1E8B0E084E08C93E6E3F0E080E88C
:100350002081247079F44E99FBCF2EE02A95F1F795
:1003600026E12150F1F74E9908948795C8F720E3CC
:100370002A95F1F75E9A1C92089585E5BDDF84E029
:10038000BBDF82E0B9DF80E1B7DFD5CF85E5B4DF41
:100390008BE8B2DFD0CFCF93C82F85E5ADDF84E601
:1003A000ABDF8C2FA9DFCF91C6CFCF9385E5A4DF3C
:1003B00089E2A2DFC0DFC82FBEDF982F8C2FCF913C
:1003C00008951F93CF93DF93162FD72FC82F85E55E
:1003D00093DF8AE691DF812F8FDF8D2F8DDF8C2FCA
:1003E0008BDFDF91CF911F91A6CFCF93DF93D82FD3
:1003F000C92F85E581DF89E67FDF8D2F7DDF8C2F9B
:100400007BDFDF91CF9197CF0F931F93CF93DF9334
:100410008B01D82FC42F85E56FDF88E46DDF802F37
:100420006BDF812F69DF8D2F67DF85DF8C2F64DF26
:10043000DF91CF911F910F917ECF1F93CF93DF93C9
:10044000182FD92FC62F85E557DF84E455DF812F7C
:1004500053DF8D2F51DF6FDF8C2F4EDFDF91CF9178
:100460001F9169CFCF93C82F85E546DF80EA44DF2F
:100470008C2FCF9141CFCF93DF93D82FC62F85E517
:100480003BDF80EC8D0F38DF8C2FDF91CF9134CFA5
:10049000CF93DF9369E588E0EEDF60E088E0EBDF93
:1004A000C0E0D6E073DF8E7039F4C23029F0B29B21
:1004B000F9CFD6BBCF5FF6CF81E0C23008F080E045
:1004C000DF91CF910895E0ECF0E0808187FFFDCFD0
:1004D0008091C6000895E0ECF0E0908195FFFDCF9B
:1004E0009081906490838093C6000895EF92FF926C
:1004F0001F93CF93DF93D82FC62F1FEF180F55DF11
:100500007C013BDF8370E9F7C7016FDF6EE082E0BB
:10051000B2DF812FA7DFEC2FF0E0E85FFE4F1681FE
:1005200085E5EADE84E6E8DE812FE6DEDC0FCF5FDC
:10053000CD1739F0EC2FF0E0E85FFE4F8681DCDE6E
:10054000F6CF66E082E097DF8C2FDF91CF911F918D
:10055000FF90EF90089511DF8370E9F70895482F19
:1005600060E070E180E090E04FCF85E5C5DE88E097
:10057000C3DE82E0C1DE80E1BFDE80E0BDDEDBDE27
:10058000837099F708950F931F93CF938C0185E59E
:10059000B3DE80EEB1DEC8E0F8018491ADDE0F5F1E
:1005A0001F4FC150C9F7CF911F910F910895E8E0F7
:1005B000F1E021E030E0338322838683089564E014
:1005C00083E059DF809107018E7F8093070180E8E7
:1005D000EECFDCDE8F7E883029F0823881F42D98D2
:1005E0008BEA0AC080910001823039F4BEDF50DF0F
:1005F0002D988823A9F380E8DACFADDFF8CFE8E0C3
:10060000F1E022E030E03383228395EA968387830A
:100610000895CF93BBDEC82FCF7EC13271F048F46E
:10062000C830D1F0E8E0F1E085EA8683C783CF9156
:100630000895C23811F0C23AA9F72ADF811103C028
:100640008BEACF91B4CFA2DE80FDECCF8DE990E0B4
:100650009ADF1EDF8823A1F380910001813039F4F5
:1006600064E080E090E1E9DE2D9A80E8EACF7DDF6A
:1006700040E062E070E180E090E0C6DE81E06FDFA4
:10068000F3CF569A5E9829E989E191E021508040A4
:100690009040E1F700005E9A8FEF9FE10197F1F73C
:1006A00000C000005698089580E48BB9259A8AE628
:1006B00098E190938B0080938A0082E08093C00041
:1006C00087E690E09093C5008093C40088E1809312
:1006D000C100C8E0D1E07E01E2E02E2E312CF3DE35
:1006E0008B31E9F76FEF7FEFFADD8C0178E0872E31
:1006F00071E0972EE8DEF40181934F01B801EFDD40
:100700008C01FEE08F16F1E09F06A1F78A819B81A4
:100710008D3B924020F7D7DE8E3009F7B801DFDD40
:100720006C018E01C8018C1B9D0B0F5F1F4F2A812E
:100730003B818217930738F4C6DEF8018583B60142
:10074000CEDD6C01EFCFBFDE182FBDDE982F812FDD
:10075000C816D90609F0C3CFF7018681883009F49D
:10076000FBC0F0F4823009F4D5C040F4882309F4CA
:10077000E2C0813009F450C080EA9FC0843009F49F
:100780002AC108F491C08530B9F700DE883009F439
:10079000E8C03B822A8285EA8E8381E08F8357C03E
:1007A0008F3009F4C6C068F58B30A1F18C3021F789
:1007B000E3E0F2E0808190E0982F8827E2E0F2E029
:1007C0002081820F911D9093050180930401E4E044
:1007D000F2E080818093030154DF53DF66E082E022
:1007E0004ADE80910401909105018F3F910509F047
:1007F00008F4B5C082E08093000180910701816018
:10080000A6C0853109F4A6C0843309F4E6C1843159
:1008100009F0B2CFFEDE1BC082E08093020184E0CB
:10082000809306012DE130E033832283E8E6F0E097
:10083000AEE0B1E084918D9331968BE291E08A171E
:100840009B07C1F780910701826080930701B29BEB
:1008500002C08BEAACDE8BE13EDE6FEF7FEF3FDD67
:100860008C016E01F60181916F0135DEB80137DD33
:100870008C018C149D04B1F78EE02DDEB8012FDDC4
:100880006C018E01C8018C1B9D0B0F5F1F4F2A81CD
:100890003B818217930708F0DCC1F80185811BDEDC
:1008A000B6011DDD6C01EECF8781833039F138F45C
:1008B000813089F08230B1F081EA79DEC8CF8530AD
:1008C00019F18630C9F723E030E03B832A8388E8BA
:1008D0008F8383E105C023E030E03B832A838F834D
:1008E000888709C085E090E09B838A831F8286E029
:1008F000888719868A8781E88E83A9CF33822282EE
:10090000809102018783F7CF809106013B822A8282
:100910008F83F1CF80859781933049F0953061F6D0
:100920009FEF980F983040F68093060102C08093A5
:10093000020180E8C2CF84E0809306018091070124
:1009400080FF02C046DE3BDE809107018D7F8093F1
:100950000701EFCF3EDE7BCF3CDE31DE78CF81E09A
:100960004ACF088519858091000152E0D52E81304B
:1009700011F043E0D42E85E5BFDC87E68D0DBCDCAD
:100980008C85BADC8D85B8DCF3E0DF1202C08E8581
:10099000B3DCD1DC8FEF800F65DD85E5ADDC84E273
:1009A000ABDCC9DC8F8320E1A22E21E0B22E32E045
:1009B000C32ED12C0C151D0540F0BDDCF501819333
:1009C0005F01FFEFCF1ADF0AF5CF0F5F1F4F1B83C9
:1009D0000A8382E891CFDADC883009F0DACEF701B9
:1009E00087810085118560900001F1E06F1268C079
:1009F000F701D484C58490E4980F923008F039C090
:100A0000E4E0F1E050808D2D9C2DEFDCD1948FEF50
:100A1000850DD822D016110611F008F0D02E8AE0EC
:100A2000782EDD2071F06AE08D2D60DD782E0D19B5
:100A30001109BBDC6C01662D80E090E1FEDCC60193
:100A4000D4DCC52CD12C0115110509F472CF672D0A
:100A50000C151D0578F1852D49DD782E0C191D0921
:100A6000A4DC5C01662D80E090E1E7DCC501BDDC23
:100A7000EACF50900301843B38F4823B50F4823239
:100A800031F493E0692EBFCF845C8230D0F382EAE8
:100A900014CF188986E090E1A8DC812F7CDC80E00F
:100AA0007ADC8D2D78DC8C2D76DC67E080E090E1BF
:100AB000C4DC3FCF802F1ADD782E10E000E0D0CFCD
:100AC000F7014684512C712C612C320155244424A9
:100AD0009485492A458550E0542F442770E060E012
:100AE000442A552A662A772A823CB8F4803CD0F4FE
:100AF000823221F060F2825B823048F673E1D72EB9
:100B000034DD81E02CDD8D2D2ADD0130110569F405
:100B10004889C301B20178DC0CCF843C79F3853C71
:100B200009F0B5CF62E0D62EEBCF0430110518F0F6
:100B3000F2E0DF16B9F08D2D12DDC301B20141DC08
:100B40008FEF800F8FDC888926DCD02E09E111E041
:100B5000DA94DD2009F4EDCEF80181918F01CCDB30
:100B6000EADBF6CFC80196958795A82EBB24BA94E8
:100B7000B80EC301B20125DC6EE082E07CDC8B2D77
:100B800071DCD988C88885E5B7DB85E6B5DB8C2DB7
:100B9000B3DB8D2DB1DB6E01AA94F2E0CF0ED11C38
:100BA000AA2039F0F6018089A7DBF6018189A4DB50
:100BB000F3CFEB2DF0E03696EE0FFF1F00FF09C0DC
:100BC000E85FFE4F168185E597DB84E695DB812F94
:100BD00093DB66E082E04FDCACCE2781263060F408
:100BE000243080F42111C8CD85E890E0CCDC50DCC5
:100BF000811110CE8BEA61CE263009F49ACE2730CF
:100C000009F0BACD4A84512C712C612C3201552443
:100C100044248885482A898590E0982F8827B0E069
:100C2000A0E0482A592A6A2A7B2A80910001813053
:100C300049F4273009F47DCE8EDC6FEFC201FDDB75
:100C400062E034CF92DC81E08ADC88E088DC4FEF20
:100C500060CF8C2D40DC8D2D3EDCE0ECF0E080811F
:100C600086FFFBCFE0910601E150FF0BEE0FFF1F67
:100C7000E357FF4F859194919093C5008093C400F2
:060C80002ECDF894FFCF19
:020C860001006B
:00000001FF
