:1000000052C1000060C100005EC100005CC1000080
:100010005AC1000058C1000056C1000054C1000080
:1000200052C1000050C100004EC100004CC1000090
:100030004AC1000048C1000046C1000044C10000A0
:1000400042C1000040C100003EC100003CC10000B0
:100050003AC1000038C1000036C1000034C10000C0
:1000600032C1000030C1000086010100060101001C
:1000700006010000000000004A5441474943452062
:100080006D6B49490065736172454D564E4003A042
:1000900001CF0067003300220010008A0020676F44
:1000A00072504D564E0000891112239B322446ADEA
:1000B000573665BF74488CC19D5AAFD3BE6CCAE534
:1000C000DB7EE9F7F88110080193331A22A5562C3C
:1000D00047B7753E64C99C408DDBBF52AEEDDA6414
:1000E000CBFFF976E802218B30100299132667AF17
:1000F000763444BD554AADC3BC588ED19F6EEBE7F4
:10010000FA7CC8F5D983310A2091121803A7772EFB
:1001100066B5543C45CBBD42ACD99E508FEFFB66D3
:10012000EAFDD874C904428D5316619F702004A95A
:10013000153227BB364CCEC5DF5EEDD7FC6888E1B3
:10014000997AABF3BA85520C4397711E60A11428BB
:1001500005B3373A26CDDE44CFDFFD56ECE9986093
:1001600089FBBB72AA06638F7214409D512225AB96
:10017000343006B9174EEFC7FE5CCCD5DD6AA9E373
:10018000B8788AF19B87730E6295501C41A3352A7B
:1001900024B1163807CFFF46EEDDDC54CDEBB96253
:1001A000A8F99A708B088481951AA793B62CC2A5DA
:1001B000D33EE1B7F04008C919522BDB3A644EED4B
:1001C0005F766DFF7C899400859BB712A6ADD22423
:1001D000C3BFF136E0C1184809D33B5A2AE55E6C2B
:1001E0004FF77D7E6C0AA583B4188691972EE3A7FE
:1001F000F23CC0B5D14229CB38500AD91B666FEF0B
:100200007E744CFD5D8BB502A499961087AFF326E2
:10021000E2BDD034C1C3394A28D11A580BE77F6EEA
:100220006EF55C7C4D0CC685D71EE597F42880A141
:10023000913AA3B3B2444ACD5B5669DF78600CE9CA
:100240001D722FFB3E8DD604C79FF516E4A99020A2
:1002500081BBB332A2C55A4C4BD7795E68E11C68AA
:100260000DF33F7A2E0EE787F61CC495D52AA1A37D
:10027000B03882B193466BCF7A5448DD59622DEB8A
:100280003C700EF91F8FF706E69DD414C5ABB12262
:10029000A0B9923083C77B4E6AD5585C49E33D6A6A
:1002A0002CF11E780F0011241FBECFEFD8E0DEBF67
:1002B000CDBF22E0A0E0B1E001C01D92AC3CB2078E
:1002C000E1F750D185C39CCE8627E82FF0E0EE0FF2
:1002D000FF1FEB55FF4F25913491872F8227932FD6
:1002E000089584E085BD80E887BD8BE092E0A99BFE
:1002F000FECF95BB8150D9F782EC84BDA99BFECF80
:1003000082E085BB5698089515BC82E287BD8CE0DB
:1003100086BD82E085BB5E984E99FECF81E085BDAB
:10032000A99BFECF82E085BB86E487BD98E080E094
:1003300022E0A99BFECF25BB86954E9980689150FF
:10034000C1F7A99BFECF92E095BB90EB97BD4E9B6A
:10035000FECF5E9A0895A99BFECF92E095BB15BC97
:1003600026E427BD25E426BD22E824BD21E025BDE5
:10037000569A95BB91E020E042E852EC32E0682FBB
:100380006923D1F054BD2095A99BFECF35BB990FB1
:10039000B1F792EC211101C092E894BDA99BFECF68
:1003A00092E095BB92EC94BDA99BFECF92E095BBE9
:1003B0009DE897BD5698089544BDE6CF85E5CBDF0F
:1003C00084E0C9DF82E0C7DF80E1C5DF9DCF85E53E
:1003D000C2DF8BE8C0DF98CF85E5BDDF88ECBBDFEF
:1003E00089E5B9DF85E5B7DF88ECB5DF80E0B3DF0D
:1003F000EEDF8E70E9F308958EBB85E5ACDF84E611
:10040000AADF8EB3A8DF80CF8EBB9ABD85E5A3DFC0
:1004100089E6A1DF8EB39FDF8AB59DDF75CF85E5C5
:100420009ADF89E298DF70DF8EBB6EDF9EB389278B
:100430009827892708956EBB8ABD9BBD85E58BDF14
:1004400084E489DF8AB587DF8BB585DF5DDF8EB316
:1004500082DF5ACF8EBB85E57EDF80EA7CDF8EB3FC
:100460007ACFE0ECF0E0808187FFFDCF8091C6007D
:100470000895E0ECF0E0908195FFFDCF8093C600F9
:100480000895EF92FF920F931F93CF93DF93082F5E
:10049000EB01C5DF7C0192DF8370E9F7C701B4DFB0
:1004A0008FEF800FD7DFE88181E08E0F8883F0E047
:1004B000EC5FFE4F8681A0DFF12C0150110BF0168E
:1004C000110664F4E88181E08E0F8883F0E0EC5F30
:1004D000FE4F868140DF18DFF394F1CFDF91CF919B
:1004E0001F910F91FF90EF9008950F931F93CF935B
:1004F000DF938C0185E52FDF80EE2DDFD0E0C0E0BB
:10050000F801EC0FFD1F849126DF2196C830D1053C
:10051000B9F7DF91CF911F910F910895E4E0F1E0D9
:1005200021E030E0338322838683089555DF4FDF57
:100530008F7E883031F0823859F48DE990E0D5DF34
:100540004BDF64E080E090E176DF2D9A80E8E6CF33
:10055000E4E0F1E022E030E03383228395EA968301
:10056000878308950F92CDB7DEB78FE380937E0027
:100570008FEF8BB98FED85B980E880BF8DEC8093CC
:10058000640082E08093C00087E68093C40088E125
:100590008093C10086E08093C20082EC84BD85E434
:1005A00086BD86E487BD81E085BD7AE0672E71E077
:1005B000772E04E011E0E2E04E2E512C52DF8B3119
:1005C000E9F76FEF7FEF80DE7C0164E0C62E61E02B
:1005D000D62E560146DFF50181935F01B70174DE27
:1005E0007C01A614B704B1F7F801A280B380F3EC44
:1005F000AF16F1E0BF0610F734DF8E30F9F6B70121
:1006000063DE4C01AC0CBD1C7601EA14FB0451F016
:1006100028DFF7018683B40157DE4C01FFEFEF1AA4
:10062000FF0AF3CF1EDFF82E1CDF982F8F2D8816C0
:10063000990609F0C3CFF8018681883009F4E4C037
:10064000E8F4823009F4D4C038F4882309F4DEC019
:10065000813089F180EA9FC0843009F414C108F424
:1006600091C08530B9F7B3DE883009F4E2C0F801F3
:100670005382428225EA268381E0D6C08F3009F476
:10068000C3C078F48B30A9F08C3021F7EEEFF1E0A5
:10069000808180930201E0E0F2E08081809301019B
:1006A000B3C0853109F4B5C0843309F45AC184312B
:1006B00089F63CDF3AC092E09093000124E0209359
:1006C000030115BC26E427BD25E426BD52E8F52E1E
:1006D000F4BC85BD569A95BB04DEF4BCA99BFECF45
:1006E00082E085BB569AFDDDA99BFECF82E085BBEB
:1006F00086E487BD85E486BD81E085BD85E52BDE8A
:1007000082EC29DE86E027DE2DE130E0F80133833C
:100710002283E8E6F0E0AAE0B1E0C60183962491E6
:100720002D9331968A179B07D1F78BE1A2DE6FEFED
:100730007FEFCADD7C01F60181916F019ADEB7017E
:10074000C3DD7C01C614D704B1F78EE092DEB70199
:10075000BBDD5C019AE0E92E91E0F92ED12CC12C91
:10076000F80182819381C816D90608F014C1F701F7
:1007700081917F017EDEB501A7DD5C01FFEFCF1A1D
:10078000DF0AEECF8781833041F138F4813089F080
:100790008230B1F081EAC2DEC8CF853021F18630E7
:1007A000C9F723E030E03383228388E8878383E13D
:1007B00005C023E030E0338322838783808709C02C
:1007C00025E030E033832283178286E0808711861C
:1007D000828781E8F8018683A8CF53824282809184
:1007E00000018783F6CF5382428280910301F9CFC3
:1007F0008781833031F0853069F6808580930301ED
:1008000003C080858093000180E8C5CF84E0809399
:100810000301DDDD8F7E883049F0823841F0F80138
:100820005382428225EA268387837FCFD5DD2D98A8
:10083000EBCFF801E084F18484859585E5DD8FEFC9
:100840008E0D08DE85E587DD84E285DD5DDDF8015E
:1008500087833CE0A32E31E0B32E42E0842E912C1E
:10086000E814F90440F050DDF50181935F01FFEFDA
:100870008F1A9F0AF5CF2FEFE21AF20AF801F382DE
:10088000E28282E8A8CFA3DD883009F0F0CEF8013B
:100890008781B484A58490E4980F90900201882405
:1008A00083949230F0F090900101823B38F0843BC9
:1008B00038F0845C23E0822E823098F082EA6BCF9D
:1008C000F08886E090E1A0DD8F2D96DD80E094DD5C
:1008D0008B2D92DD8A2D90DD67E080E090E1ABDD2D
:1008E00093CFF801E084F1848AE089838B2D9A2DDF
:1008F0008BDDB1948FEF890DB822BE141F0411F067
:1009000008F0BE2CBB2079F0BE016F5F7F4F8B2DAE
:10091000B8DDEB18F10883DD5C01682D80E090E123
:100920008ADDC50171DD292C312CE114F10409F4B3
:100930006BCFBE016F5F7F4FE214F30468F0892D27
:10094000A0DDE218F3086BDD5C01682D80E090E12A
:1009500072DDC50159DDE9CF8E2D93DDF12CE12C3F
:10096000F2CF8781863048F4843058F4811172CEFA
:1009700085E890E0BADD30DD9CCE883008F444CFC5
:1009800069CEE084F1841ADD8370E9F76FEFC70167
:1009900052DD62E0A2CF8A2D6CDD8B2D6ADDE0ECAA
:1009A000F0E0808180648083E0ECF0E0808186FF6D
:1009B000FBCFE0910301E150FF0BEE0FFF1FE35768
:1009C000FF4F85919491E4ECF0E091838083F6CD24
:0409D000F894FFCFC9
:00000001FF
