:1000000066C100007FC100007DC100007BC100000F
:1000100079C1000077C1000075C1000073C1000004
:1000200071C100006FC100006DC100006BC1000014
:1000300069C1000067C1000065C1000063C1000024
:1000400061C100005FC100005DC100005BC1000034
:1000500059C1000057C1000055C1000053C1000044
:1000600051C100004FC100008601010006010100DE
:1000700006010000000000004A5441474943452062
:100080006D6B49490065736172454D564E4003A042
:1000900001CF0067003300220010008A000C000826
:1000A00000030001000F000700030001000C00091D
:1000B0000007000600040003000200020001000027
:1000C000000000000020676F72504D564E000089FE
:1000D0001112239B322446AD573665BF74488CC13C
:1000E0009D5AAFD3BE6CCAE5DB7EE9F7F8811008F4
:1000F0000193331A22A5562C47B7753E64C99C401C
:100100008DDBBF52AEEDDA64CBFFF976E802218BCE
:1001100030100299132667AF763444BD554AADC3FB
:10012000BC588ED19F6EEBE7FA7CC8F5D983310AB3
:100130002091121803A7772E66B5543C45CBBD42DB
:10014000ACD99E508FEFFB66EAFDD874C904428D8E
:100150005316619F702004A9153227BB364CCEC5BB
:10016000DF5EEDD7FC6888E1997AABF3BA85520C73
:100170004397711E60A1142805B3373A26CDDE449B
:10018000CFDFFD56ECE9986089FBBB72AA06638F4E
:100190007214409D512225AB343006B9174EEFC77B
:1001A000FE5CCCD5DD6AA9E3B8788AF19B87730E33
:1001B0006295501C41A3352A24B1163807CFFF465B
:1001C000EEDDDC54CDEBB962A8F99A708B0884811E
:1001D000951AA793B62CC2A5D33EE1B7F04008C943
:1001E00019522BDB3A644EED5F766DFF7C899400EB
:1001F000859BB712A6ADD224C3BFF136E0C1184823
:1002000009D33B5A2AE55E6C4FF77D7E6C0AA583C5
:10021000B4188691972EE3A7F23CC0B5D14229CB02
:1002200038500AD91B666FEF7E744CFD5D8BB502AA
:10023000A499961087AFF326E2BDD034C1C3394AE2
:1002400028D11A580BE77F6E6EF55C7C4D0CC68585
:10025000D71EE597F42880A1913AA3B3B2444ACDC2
:100260005B5669DF78600CE91D722FFB3E8DD6046A
:10027000C79FF516E4A9902081BBB332A2C55A4CA2
:100280004BD7795E68E11C680DF33F7A2E0EE78745
:10029000F61CC495D52AA1A3B03882B193466BCF82
:1002A0007A5448DD59622DEB3C700EF91F8FF7062A
:1002B000E69DD414C5ABB122A0B9923083C77B4E62
:1002C0006AD5585C49E33D6A2CF11E780F00112471
:1002D0001FBECFEFD8E0DEBFCDBF11E0A0E0B1E0A0
:1002E000ECEAFCE002C005900D92A230B107D9F70C
:1002F00023E0A2E0B1E001C01D92AA3CB207E1F701
:10030000EBD1D2C47DCEE8E0F1E022E030E03383EF
:10031000228395EA9683878308958627E82FF0E065
:10032000EE0FFF1FE353FF4F25913491872F822754
:10033000932F0895569A0BB038E724E22A95F1F7E7
:100340005E9801F025E12A95F1F780FB06F8879584
:100350003041000087F90BB8A8F727E12A95F1F79B
:1003600030FB06F80BB828E12A95F1F75E9A2CE0ED
:100370002A95F1F75698089556985E981092850040
:1003800010928400A1E8B0E084E08C93E6E3F0E012
:1003900080E82081247079F44E99FBCF2EE02A95D5
:1003A000F1F726E12150F1F74E9908948795C8F7A7
:1003B00020E32A95F1F75E9A1C92089585E5BADF4D
:1003C00084E0B8DF82E0B6DF80E1B4DFD5CF85E539
:1003D000B1DF8BE8AFDFD0CFCF93C82F85E5AADFA1
:1003E00084E6A8DF8C2FA6DFCF91C6CFCF9385E51B
:1003F000A1DF89E29FDFC0DFC82FBEDF982F8C2FDF
:10040000CF9108951F93CF93DF93162FD72FC82F27
:1004100085E590DF8AE68EDF812F8CDF8D2F8ADFE6
:100420008C2F88DFDF91CF911F91A6CFCF93DF93E1
:10043000D82FC92F85E57EDF89E67CDF8D2F7ADF17
:100440008C2F78DFDF91CF9197CF0F931F93CF93AE
:10045000DF938B01D82FC42F85E56CDF88E46ADF3A
:10046000802F68DF812F66DF8D2F64DF85DF8C2F83
:1004700061DFDF91CF911F910F917ECF1F93CF93BB
:10048000DF93182FD92FC62F85E554DF84E452DF80
:10049000812F50DF8D2F4EDF6FDF8C2F4BDFDF91F1
:1004A000CF911F9169CFCF93C82F85E543DF80EAB5
:1004B00041DF8C2FCF913ECFCF93DF93D82FC62F24
:1004C00085E538DF80EC8D0F35DF8C2FDF91CF9104
:1004D00031CFCF93DF9369E588E0EEDF60E088E01D
:1004E000EBDFC0E0D6E073DF8E7039F4C23029F064
:1004F000B29BF9CFD6BBCF5FF6CF81E0C23008F018
:1005000080E0DF91CF910895E0ECF0E0808187FFFB
:10051000FDCF8091C6000895E0ECF0E0908195FF5A
:10052000FDCF9081906490838093C6000895EF92F0
:10053000FF921F93CF93DF93D82FC62F1FEF180F73
:1005400055DF7C013BDF8370E9F7C7016FDF6EE0A9
:1005500082E0B2DF812FA7DFEC2FF0E0E85FFE4FF3
:10056000168185E5E7DE84E6E5DE812FE3DEDC0F3C
:10057000CF5FCD1739F0EC2FF0E0E85FFE4F8681BA
:10058000D9DEF6CF66E082E097DF8C2FDF91CF9146
:100590001F91FF90EF90089511DF8370E9F70895A0
:1005A000482F60E070E180E090E04FCF85E5C2DE4B
:1005B00088E0C0DE82E0BEDE80E1BCDE80E0BADE44
:1005C000DBDE837099F708950F931F93CF938C010F
:1005D00085E5B0DE80EEAEDEC8E0F8018491AADEEB
:1005E0000F5F1F4FC150C9F7CF911F910F91089511
:1005F000E8E0F1E021E030E0338322838683089550
:1006000064E083E059DF809107018E7F80930701CA
:1006100080E8EECFDCDE8F7E883029F0823881F4EE
:100620002D988BEA0AC080910001823039F4BEDF38
:1006300050DF2D988823A9F380E8DACFADDFF8CF1B
:1006400081E061CECF93C3DEC82FCF7EC13249F0A7
:1006500020F4C830C9F08C2F0FC0C23811F0C23A54
:10066000D1F737DF811103C08BEACF91C1CFAFDE65
:1006700080FF04C08C2F8160CF9145CE85EC90E047
:10068000A3DF27DF882381F380910001813039F4D3
:1006900064E080E090E1F2DE2D9A80E8E6CF86DF2C
:1006A00040E062E070E180E090E0CFDE81E078DF62
:1006B000F3CF569A5E9829E989E191E02150804074
:1006C0009040E1F700005E9A8FEF9FE10197F1F70C
:1006D00000C000005698089580E48BB9259A8AE6F8
:1006E00098E190938B0080938A0082E08093C00011
:1006F00087E690E09093C5008093C40088E18093E2
:10070000C100C8E0D1E07E0163E0262E312CFCDE82
:100710008B31E9F76FEF7FEF00DE8C0158E0852E1B
:1007200051E0952EF1DEF40181934F01B801F5DD22
:100730008C01FEE08F16F1E09F06A1F78A819B8174
:100740008D3B924020F7E0DE8E3009F7B801E5DD01
:100750006C018E01C8018C1B9D0B0F5F1F4F2A81FE
:100760003B818217930738F4CFDEF8018583B60109
:10077000D4DD6C01EFCFC8DE182FC6DE982F812F95
:10078000C816D90609F0C3CFF7018681883009F46D
:10079000F7C0D0F4823009F4D1C040F4882309F4C2
:1007A000DEC0813009F44CC080EA9BC0843009F47B
:1007B00026C108F48DC08530B9F709DE883009F408
:1007C000E4C081E0A0DD57C08F3009F4C6C068F5F1
:1007D0008B30A1F18C3041F7E3E0F2E0808190E0D2
:1007E000982F8827E2E0F2E02081820F911D9093FC
:1007F000050180930401E4E0F2E08081809303012D
:1008000058DF57DF66E082E057DE80910401909167
:1008100005018F3F910509F008F4B5C082E080938F
:100820000001809107018160A6C0853109F4A6C04E
:10083000843309F4E5C1843109F0B6CF03DF1BC06E
:1008400082E08093020184E0809306012DE130E094
:1008500033832283E8E6F0E0AEE0B1E084918D934B
:1008600031968BE291E08A179B07C1F780910701CF
:10087000826080930701B29B02C08BEAB9DE8BE1F4
:100880004BDE6FEF7FEF49DD8C016E01F601819148
:100890006F0142DEB80141DD8C018C149D04B1F77B
:1008A0008EE03ADEB80139DD6C018E01C8018C1B87
:1008B0009D0B0F5F1F4F2A813B818217930708F022
:1008C000DBC1F801858128DEB60127DD6C01EECFA2
:1008D0008781833019F138F4813079F0823091F0DA
:1008E00081EA86DEC8CF853009F18630C9F73B82C0
:1008F0002A8288E88F8383E103C03B822A828F8328
:10090000888709C025E030E03B832A831F8286E088
:10091000888719868A8781E88E83ADCF22E030E010
:1009200033832283809102018783F5CF8091060172
:10093000E2E0F0E0FB83EA838F83EDCF808597814F
:10094000933049F0953061F69FEF980F9C3140F657
:100950008093060102C08093020180E8C2CF84E048
:10096000809306018091070180FF02C053DE48DEBC
:10097000809107018D7F80930701EFCF4BDE7BCF06
:1009800049DE3EDE78CF81E04ACF08851985809127
:10099000000132E0D32E813011F023E0D22E85E524
:1009A000C9DC87E68D0DC6DC8C85C4DC8D85C2DC98
:1009B000F3E0DF1202C08E85BDDCDEDC8FEF800F3E
:1009C00072DD85E5B7DC84E2B5DCD6DC8F8380E1BF
:1009D000A82E81E0B82E92E0C92ED12C0C151D0551
:1009E00040F0CADCF50181935F01FFEFCF1ADF0A07
:1009F000F5CF0F5F1F4F1B830A8382E88DCFE7DCA3
:100A0000883009F0DECEF70187810085118560907E
:100A10000001F1E06F1268C0F701D484C58490E44E
:100A2000980F923008F039C0E4E0F1E050808D2D4D
:100A30009C2DFCDCD1948FEF850DD822D0161106A9
:100A400011F008F0D02EAAE07A2EDD2071F06AE0D5
:100A50008D2D6DDD782E0D191109C8DC6C01662D08
:100A600080E090E10BDDC601E1DCC52CD12C011545
:100A7000110509F472CF672D0C151D0578F1852D30
:100A800056DD782E0C191D09B1DC5C01662D80E065
:100A900090E1F4DCC501CADCEACF50900301843B4D
:100AA00038F4823B50F4823231F4B3E06B2EBFCF86
:100AB000845C8230D0F382EA14CF188986E090E11A
:100AC000B5DC812F89DC80E087DC8D2D85DC8C2DE9
:100AD00083DC67E080E090E1D1DC3FCF802F27DD31
:100AE000782E10E000E0D0CF823C50F5803C68F5D5
:100AF000823221F000F3825B8230E8F6F3E1DF2EF0
:100B00004E84512C712C612C3201552444248C8547
:100B1000482A8D8590E0982F8827B0E0A0E0482AE9
:100B2000592A6A2A7B2A42DD81E03ADD8D2D38DDA3
:100B30000130110569F44889C301B20186DC0DCF8B
:100B4000843CE1F2853C09F0B6CFE2E0DE2ED8CF5E
:100B50000430110518F0F2E0DF16B9F08D2D20DD1C
:100B6000C301B2014FDC8FEF800F9DDC888934DC3C
:100B7000D02E09E111E0DA94DD2009F4EECEF8017F
:100B800081918F01D7DBF8DBF6CFC8019695879569
:100B9000A82EBB24BA94B80EC301B20133DC6EE0B8
:100BA00082E08ADC8B2D7FDCD988C88885E5C2DBB2
:100BB00085E6C0DB8C2DBEDB8D2DBCDB6E01AA94DF
:100BC000F2E0CF0ED11CAA2039F0F6018089B2DB09
:100BD000F6018189AFDBF3CFEB2DF0E03696EE0F17
:100BE000FF1F00FF09C0E85FFE4F168185E5A2DB0D
:100BF00084E6A0DB812F9EDB66E082E05DDCADCE8B
:100C00002781263060F4243080F42111CDCD85E891
:100C100090E0DADC5EDC811111CE8BEA62CE263008
:100C200009F49BCE273009F0BFCD4A84512C712C9A
:100C3000612C3201552444248885482A898590E016
:100C4000982F8827B0E0A0E0482A592A6A2A7B2AF0
:100C500080910001813049F4273009F47ECE9CDC7C
:100C60006FEFC2010BDC62E035CFA0DC81E098DCE5
:100C700088E096DC4FEF60CF8C2D4EDC8D2D4CDC68
:100C8000E0ECF0E0808186FFFBCFE0910601E150CF
:100C9000FF0BEE0FFF1FE357FF4F85919491909349
:0C0CA000C5008093C40033CDF894FFCF52
:020CAC00010045
:00000001FF
