:1000000066C100007FC100007DC100007BC100000F
:1000100079C1000077C1000075C1000073C1000004
:1000200071C100006FC100006DC100006BC1000014
:1000300069C1000067C1000065C1000063C1000024
:1000400061C100005FC100005DC100005BC1000034
:1000500059C1000057C1000055C1000053C1000044
:1000600051C100004FC100000000891112239B32D2
:100070002446AD573665BF74488CC19D5AAFD3BE78
:100080006CCAE5DB7EE9F7F88110080193331A2288
:10009000A5562C47B7753E64C99C408DDBBF52AE58
:1000A000EDDA64CBFFF976E802218B301002991368
:1000B0002667AF763444BD554AADC3BC588ED19F38
:1000C0006EEBE7FA7CC8F5D983310A209112180348
:1000D000A7772E66B5543C45CBBD42ACD99E508F18
:1000E000EFFB66EAFDD874C904428D5316619F7018
:1000F0002004A9153227BB364CCEC5DF5EEDD7FCF8
:100100006888E1997AABF3BA85520C4397711E6007
:10011000A1142805B3373A26CDDE44CFDFFD56ECD7
:10012000E9986089FBBB72AA06638F7214409D51E7
:100130002225AB343006B9174EEFC7FE5CCCD5DDB7
:100140006AA9E3B8788AF19B87730E6295501C41C7
:10015000A3352A24B1163807CFFF46EEDDDC54CD97
:10016000EBB962A8F99A708B088481951AA793B6A7
:100170002CC2A5D33EE1B7F04008C919522BDB3A97
:10018000644EED5F766DFF7C899400859BB712A667
:10019000ADD224C3BFF136E0C1184809D33B5A2A77
:1001A000E55E6C4FF77D7E6C0AA583B41886919747
:1001B0002EE3A7F23CC0B5D14229CB38500AD91B57
:1001C000666FEF7E744CFD5D8BB502A49996108727
:1001D000AFF326E2BDD034C1C3394A28D11A580B37
:1001E000E77F6E6EF55C7C4D0CC685D71EE597F4F7
:1001F0002880A1913AA3B3B2444ACD5B5669DF7817
:10020000600CE91D722FFB3E8DD604C79FF516E4E6
:10021000A9902081BBB332A2C55A4C4BD7795E68F6
:10022000E11C680DF33F7A2E0EE787F61CC495D5C6
:100230002AA1A3B03882B193466BCF7A5448DD59D6
:10024000622DEB3C700EF91F8FF706E69DD414C5A6
:10025000ABB122A0B9923083C77B4E6AD5585C49B6
:10026000E33D6A2CF11E780F20676F72504D564E99
:1002700086010100060101000601000000000000E7
:100280004A544147494345206D6B494900657361B4
:1002900072454D564E4003A001CF00670033002247
:1002A0000010008A000C000800030001000F000786
:1002B00000030001000C0009000700060004000311
:1002C00000020002000100000000000000001124F4
:1002D0001FBECFEFD8E0DEBFCDBF11E0A0E0B1E0A0
:1002E000E4EEFCE002C005900D92A230B107D9F710
:1002F00023E0A2E0B1E001C01D92AA3CB207E1F701
:10030000F0D1EEC47DCEE7E0F1E021E030E03383D0
:10031000228386830895E0ECF0E0908195FFFDCF85
:100320009081906490838093C6000895E0ECF0E0A3
:10033000808187FFFDCF8091C600089556985E9812
:100340001092850010928400A1E8B0E084E08C93C4
:10035000E6E3F0E080E82081247079F44E99FBCF49
:100360002EE02A95F1F726E12150F1F74E990894F5
:100370008795C8F720E32A95F1F75E9A1C920895B5
:10038000E82F872FE627F0E0EE0FFF1FE859FF4F19
:10039000259134918227932F0895E7E0F1E022E040
:1003A00030E03383228395EA968387830895569AB3
:1003B0000BB038E724E22A95F1F75E9801F025E1C9
:1003C0002A95F1F780FB06F887953041000087F900
:1003D0000BB8A8F727E12A95F1F730FB06F80BB820
:1003E00028E12A95F1F75E9A2CE02A95F1F75698C4
:1003F00008951F93CF93DF93EC0185E5D8DF80EE5E
:10040000D6DF18E0FE018491D2DF21961A95D1F74C
:10041000DF91CF911F91089585E5C9DF88E0C7DF9F
:1004200082E0C5DF80E1C3DF80E0C1DF87DF83706A
:100430008111F2CF0895CF93DF93D82FC62F85E592
:10044000B6DF80EC8D0FB3DF8C2FDF91CF91AFCF74
:1004500064E083E0F0DF809106018E7F80930601E7
:1004600080E851CFCF93C82F85E5A1DF80EA9FDFD9
:100470008C2FCF919CCF1F93CF93DF93182FD92F21
:10048000C62F85E594DF84E492DF812F90DF8D2FE6
:100490008EDF54DF8C2F8BDFDF91CF911F914ECFFA
:1004A0000F931F93CF93DF938B01D82FC42F85E534
:1004B0007EDF88E47CDF802F7ADF812F78DF8D2F4D
:1004C00076DF3CDF8C2F73DFDF91CF911F910F918F
:1004D00035CF482F60E070E180E090E0E1CFCF932E
:1004E000DF93D82FC92F85E562DF89E660DF8D2F86
:1004F0005EDF8C2F5CDFDF91CF9120CF1F93CF93F6
:10050000DF93162FD72FC82F85E551DF8AE64FDFFF
:10051000812F4DDF8D2F4BDF8C2F49DFDF91CF9166
:100520001F910CCFCF9385E542DF89E240DF06DFE4
:10053000C82F04DF982F8C2FCF910895CF93C82F09
:1005400085E535DF84E633DF8C2F31DFCF91F6CEC2
:1005500085E52DDF8BE82BDFF1CECF9369E588E0D1
:100560006ADF60E088E067DFC0E0F2DF8E70811153
:1005700008C0C23031F0B29BF8CF86E086BBCF5FB7
:10058000F4CF81E0C23008F080E0CF910895CF939E
:10059000DFDFC82FCF7EC13241F020F4C830C1F078
:1005A0008C2F0EC08F7C8238D9F7D7DF811103C022
:1005B0008BEACF91A8CECCDF80FF04C08C2F816066
:1005C000CF91EBCE88E692E014DFC7DF811581F38F
:1005D00080910001813039F464E080E090E14BDFEC
:1005E0002D9A80E8E6CF18DF40E062E070E180E01D
:1005F00090E056DF81E06DDFF3CF85E5D8DE84E063
:10060000D6DE82E0D4DE80E1D2DE98CEF6DF8370E3
:100610008111FCCF08959CDF8F7E883029F08238CD
:1006200081F42D988BEA0AC080910001823039F460
:10063000F3DE93DF2D988115A9F380E864CEE6DF21
:10064000F8CF81E0AACEFF920F931F93CF93DF9351
:10065000C82F162FFF24FA94F80E64DF082FD92F25
:10066000CCDF83708111FCCF802F9D2F38DF6EE0AF
:1006700082E0E1DE8F2DF6DEE12FF0E0E95FFE4F54
:10068000D68185E594DE84E692DE8D2F90DED1E082
:10069000D10FC10FDC130AC066E082E0CCDE8D2FE3
:1006A000DF91CF911F910F91FF900895ED2FF0E012
:1006B000E95FFE4F86817BDEDF5FECCF569A5E9866
:1006C00029E989E191E0215080409040E1F7000064
:1006D0005E9A8FEF9FE10197F1F700C000005698F6
:1006E000089580E48BB9259A8AE698E190938B006F
:1006F00080938A0082E08093C00087E690E0909328
:10070000C5008093C40088E18093C100C7E0D1E0B8
:1007100099249394E2E04E2E512CF3E06F2E712C2D
:1007200005DE8B31E9F76FEF7FEF2ADE6C0177E0B2
:10073000A72E71E0B72E8501F9DDF80181938F01B5
:10074000B6011EDE6C01F1E00D301F07A9F7EA804B
:10075000FB802DEBE21622E0F20610F7E7DD8E308B
:10076000F9F6B6010DDE8C01C701895F9E4F7C0151
:1007700067E0C62E61E0D62ECE14DF0439F5D6DD53
:10078000F82ED4DD982F8F2D0817190749F68E8182
:10079000883009F40BC160F5833009F4C2C000F55C
:1007A000813009F465C0823009F0EFC09F818885EF
:1007B000933009F4E6C0953009F0BBC09FEF980F65
:1007C0009C3108F0B6C08093C903DDC0AFDDF601EF
:1007D0008683B801D5DD8C01FFEFCF1ADF0ACCCFBD
:1007E000843009F452C1853009F40CC180EAA2C0FA
:1007F000843149F050F48C3009F4DBC08F3009F4B7
:10080000C2C08B3099F7C3DE4DC0853109F4CCC02E
:10081000843361F72F81263009F4B5C008F043C254
:10082000211509F444C28CEF820F8230F8F6CA8495
:10083000D12CE12CF12C7601DD24CC248885C82A2A
:10084000898590E0982F8827A0E0B0E0C82AD92AAF
:10085000EA2AFB2A80910001813009F030C227305A
:1008600009F491C0D3DE6FEFC60105DE62E068C116
:1008700082E08093020184E08093C9038DE190E0DF
:100880009B838A83E0E7F2E0ADE0B1E084918D9351
:10089000319691E0AA32B907C9F7809106018260CA
:1008A00080930601B29B02C08BEA2DDD8BE133DD24
:1008B0006FEF7FEF65DD8C01F50181915F012BDD2D
:1008C000B8015EDD8C01FDE0AF16F1E0BF06A1F7D7
:1008D0008EE021DDB80154DD6C019DE0E92E91E050
:1008E000F92E00E010E08A819B810817190708F4AF
:1008F000EDC18C2D10DD8D2D0EDDE0ECF0E0808162
:1009000086FFFBCFE091C903E150FF0BEE0FFF1F05
:10091000EB56FD4F85919491E4ECF0E09183808358
:10092000FFCE8F81833011F138F4813079F082303D
:1009300089F081EAE8DCB6CF8530F1F08630C9F77E
:100940007B826A8288E88F8383E102C07B826A822D
:10095000888709C0E5E0F0E0FB83EA831F8286E038
:10096000888719868A8781E88E839CCF5B824A823A
:10097000809102018F83F7CF5B824A828091C90305
:10098000F9CF8093020180E8D5CF84E08093C9033A
:100990008091060180FF02C03EDE5ADD8091060193
:1009A0008D7F80930601EFCF36DE7CCF34DE50DDC5
:1009B00079CFE2E0F2E0808190E0982F8827E1E0B3
:1009C000F2E02081820F911D909305018093040134
:1009D000E3E0F2E080818093030170DE6FDE66E089
:1009E00082E029DD809104019091050181159140FB
:1009F00038F082E080930001809106018160D1CFC0
:100A0000892DF8CF1F81A4DD883029F0103219F02C
:100A1000892DC3DC47CF088519858091000142E00C
:100A2000F42E813011F033E0F32E85E5C0DC87E64B
:100A30008F0DBDDC8C85BBDC8D85B9DC22E0F21628
:100A400011F08E85B4DC7ADC8FEF800F0BDD85E54D
:100A5000AEDC84E2ACDC72DC8F839FE0C92E91E0D7
:100A6000D92E22E0E22EF12C0E151F0530F40F5F77
:100A70001F4F1B830A8382E877CF60DCF6018193E6
:100A80006F01FFEFEF1AFF0AEFCFDF8061DD8830E3
:100A900019F020E2D212BCCF0885198580900001A0
:100AA0008D85CC8491E0891270C0EC84FD8480E453
:100AB0008D0DC09004018230B8F0C0900301E4EBCA
:100AC000DE1660F4F2EBDF1670F520E2D21609F4C0
:100AD0003BC082E2D81631F082EA2CCF8CE38D0D38
:100AE0008230D0F783E0882EC701F9DCE1948FEFE4
:100AF0008C0DE8220E15110508F4E02EBAE0DB2E6D
:100B0000E11471F06AE08E2D9EDDD82E0E191109C8
:100B100009DD7C01682D80E090E1ADDCC701DFDC00
:100B2000EC2CF12C28C0188986E090E1D8DC812FCC
:100B300005DD80E003DD8E2D01DD8F2DFFDC67E01C
:100B400080E090E198DC1FCFB70180E090E0488919
:100B5000A7DC19CF6D2D0E151F0588F08C2D73DDC8
:100B6000D82E0E191F09DEDC1C01682D80E090E1F3
:100B700082DCC101B4DC0115110561F704CF802FBF
:100B800062DDD82E00E010E0EECF92ECD91670F4C2
:100B9000E0ECDE1688F4F2E2DF1629F09EE49D0D0B
:100BA000923008F099CFF3E18F2E08C024ECD216D2
:100BB000D1F395ECD91290CFA2E08A2E9E85D12C4C
:100BC000E12CF12CE92A90E0982F8827A0E0B0E0F2
:100BD000C82AD92AEA2AFB2A1FDC892D7ADC882D2B
:100BE00078DC0130110521F44889C701B601B0CF86
:100BF0000430110518F0E2E08E16C1F033243A9467
:100C0000300E882D66DCC701B60178DC832D2ADC26
:100C1000888994DC08E111E0311409F4B4CEF801BC
:100C200081918F01C4DB8ADB3A94F6CFC801969597
:100C3000879588248A94880EC701B6015FDC6EE030
:100C400082E0F9DB882D0EDCF988E88885E5AFDBEA
:100C500085E6ADDB8E2DABDB8F2DA9DB77E0E72EB4
:100C600071E0F72ED82CF2E0EF0EF11CD11013C07A
:100C700000FF0DC0E82DF0E0EE0FFF1FED5EFE4F10
:100C8000168185E594DB84E692DB812F90DB66E0BC
:100C900082E0D1DB78CEF701808989DBF701818999
:100CA00086DBDA94E0CF273009F4C1CD9FCD8DE803
:100CB00092E09FDB52DC8111A6CD8BEA3BCEACDB10
:100CC00081E007DC88E005DC4FEF8FCFF7018191F1
:100CD0007F0121DBB60154DB6C010F5F1F4F03CE98
:040CE000F894FFCFB6
:020CE40001000D
:00000001FF
